{
  "contractName": "CryptoNft",
  "abi": [
    {
      "inputs": [],
      "stateMutability": "nonpayable",
      "type": "constructor"
    },
    {
      "anonymous": false,
      "inputs": [
        {
          "indexed": true,
          "internalType": "address",
          "name": "from",
          "type": "address"
        },
        {
          "indexed": true,
          "internalType": "address",
          "name": "to",
          "type": "address"
        },
        {
          "indexed": true,
          "internalType": "uint256",
          "name": "tokenId",
          "type": "uint256"
        }
      ],
      "name": "Transfer",
      "type": "event"
    },
    {
      "inputs": [
        {
          "internalType": "address",
          "name": "_owner",
          "type": "address"
        }
      ],
      "name": "balanceOf",
      "outputs": [
        {
          "internalType": "uint256",
          "name": "",
          "type": "uint256"
        }
      ],
      "stateMutability": "view",
      "type": "function",
      "constant": true
    },
    {
      "inputs": [
        {
          "internalType": "uint256",
          "name": "",
          "type": "uint256"
        }
      ],
      "name": "cryptoNfts",
      "outputs": [
        {
          "internalType": "string",
          "name": "",
          "type": "string"
        }
      ],
      "stateMutability": "view",
      "type": "function",
      "constant": true
    },
    {
      "inputs": [],
      "name": "name",
      "outputs": [
        {
          "internalType": "string",
          "name": "",
          "type": "string"
        }
      ],
      "stateMutability": "view",
      "type": "function",
      "constant": true
    },
    {
      "inputs": [
        {
          "internalType": "uint256",
          "name": "_tokenId",
          "type": "uint256"
        }
      ],
      "name": "ownerOf",
      "outputs": [
        {
          "internalType": "address",
          "name": "",
          "type": "address"
        }
      ],
      "stateMutability": "view",
      "type": "function",
      "constant": true
    },
    {
      "inputs": [],
      "name": "symbol",
      "outputs": [
        {
          "internalType": "string",
          "name": "",
          "type": "string"
        }
      ],
      "stateMutability": "view",
      "type": "function",
      "constant": true
    },
    {
      "inputs": [
        {
          "internalType": "string",
          "name": "_cryptoNft",
          "type": "string"
        }
      ],
      "name": "mint",
      "outputs": [],
      "stateMutability": "nonpayable",
      "type": "function"
    }
  ],
  "bytecode": "0x608060405234801561001057600080fd5b506040518060400160405280600981526020016810dc9e5c1d1bdb999d60ba1b81525060405180604001604052806005815260200164434e46545360d81b815250818181600090816100629190610118565b50600161006f8282610118565b50505050506101d7565b634e487b7160e01b600052604160045260246000fd5b600181811c908216806100a357607f821691505b6020821081036100c357634e487b7160e01b600052602260045260246000fd5b50919050565b601f82111561011357600081815260208120601f850160051c810160208610156100f05750805b601f850160051c820191505b8181101561010f578281556001016100fc565b5050505b505050565b81516001600160401b0381111561013157610131610079565b6101458161013f845461008f565b846100c9565b602080601f83116001811461017a57600084156101625750858301515b600019600386901b1c1916600185901b17855561010f565b600085815260208120601f198616915b828110156101a95788860151825594840194600190910190840161018a565b50858210156101c75787850151600019600388901b60f8161c191681555b5050505050600190811b01905550565b6108a6806101e66000396000f3fe608060405234801561001057600080fd5b50600436106100625760003560e01c806306fdde03146100675780636352211e1461008557806370a08231146100b057806395d89b41146100d157806397245da0146100d9578063d85d3d27146100ec575b600080fd5b61006f610101565b60405161007c919061054a565b60405180910390f35b61009861009336600461057d565b610193565b6040516001600160a01b03909116815260200161007c565b6100c36100be366004610596565b6101d7565b60405190815260200161007c565b61006f61021b565b61006f6100e736600461057d565b61022a565b6100ff6100fa3660046105dc565b6102d6565b005b6060600080546101109061068d565b80601f016020809104026020016040519081016040528092919081815260200182805461013c9061068d565b80156101895780601f1061015e57610100808354040283529160200191610189565b820191906000526020600020905b81548152906001019060200180831161016c57829003601f168201915b5050505050905090565b6000818152600260205260408120546001600160a01b0316806101d15760405162461bcd60e51b81526004016101c8906106c7565b60405180910390fd5b92915050565b60006001600160a01b0382166101ff5760405162461bcd60e51b81526004016101c8906106c7565b506001600160a01b031660009081526003602052604090205490565b6060600180546101109061068d565b6004818154811061023a57600080fd5b9060005260206000200160009150905080546102559061068d565b80601f01602080910402602001604051908101604052809291908181526020018280546102819061068d565b80156102ce5780601f106102a3576101008083540402835291602001916102ce565b820191906000526020600020905b8154815290600101906020018083116102b157829003601f168201915b505050505081565b6005816040516102e69190610709565b9081526040519081900360200190205460ff16156103465760405162461bcd60e51b815260206004820152601f60248201527f4572726f72202d2043727970746f6e667420616c72656164792065786973740060448201526064016101c8565b600480546001810182556000919091527f8a35acfbc15ff81a39ae7d344fd709f28e8600b4aa8c65c6b64bfe7fe36bd19b016103828282610774565b506004546000906103959060019061084a565b90506103a133826103d7565b60016005836040516103b39190610709565b908152604051908190036020019020805491151560ff199092169190911790555050565b6001600160a01b0382166104395760405162461bcd60e51b815260206004820152602360248201527f4552433732313a206d696e74696e6720746f20746865207a65726f206164647260448201526265737360e81b60648201526084016101c8565b6000818152600260205260409020546001600160a01b03161561049e5760405162461bcd60e51b815260206004820152601c60248201527f4552433732313a20746f6b656e20616c7265616479206d696e7465640000000060448201526064016101c8565b600081815260026020908152604080832080546001600160a01b0319166001600160a01b0387169081179091558352600390915281208054600192906104e590849061085d565b909155505060405181906001600160a01b038416906000907fddf252ad1be2c89b69c2b068fc378daa952ba7f163c4a11628f55a4df523b3ef908290a45050565b60005b83811015610541578181015183820152602001610529565b50506000910152565b6020815260008251806020840152610569816040850160208701610526565b601f01601f19169190910160400192915050565b60006020828403121561058f57600080fd5b5035919050565b6000602082840312156105a857600080fd5b81356001600160a01b03811681146105bf57600080fd5b9392505050565b634e487b7160e01b600052604160045260246000fd5b6000602082840312156105ee57600080fd5b813567ffffffffffffffff8082111561060657600080fd5b818401915084601f83011261061a57600080fd5b81358181111561062c5761062c6105c6565b604051601f8201601f19908116603f01168101908382118183101715610654576106546105c6565b8160405282815287602084870101111561066d57600080fd5b826020860160208301376000928101602001929092525095945050505050565b600181811c908216806106a157607f821691505b6020821081036106c157634e487b7160e01b600052602260045260246000fd5b50919050565b60208082526022908201527f6f776e657220717565727920666f72206e6f6e206578697374656e7420746f6b60408201526132b760f11b606082015260800190565b6000825161071b818460208701610526565b9190910192915050565b601f82111561076f57600081815260208120601f850160051c8101602086101561074c5750805b601f850160051c820191505b8181101561076b57828155600101610758565b5050505b505050565b815167ffffffffffffffff81111561078e5761078e6105c6565b6107a28161079c845461068d565b84610725565b602080601f8311600181146107d757600084156107bf5750858301515b600019600386901b1c1916600185901b17855561076b565b600085815260208120601f198616915b82811015610806578886015182559484019460019091019084016107e7565b50858210156108245787850151600019600388901b60f8161c191681555b5050505050600190811b01905550565b634e487b7160e01b600052601160045260246000fd5b818103818111156101d1576101d1610834565b808201808211156101d1576101d161083456fea2646970667358221220e452caf2903796b25877215991becc0abdaf69e3b0e8af90661cb30493b2587864736f6c63430008110033",
  "immutableReferences": {},
  "source": "//SPDX-License-Identifier: MIT\npragma solidity ^0.8.0;\n\nimport \"./ERC721Connector.sol\";\n\n//initialize this contract to inherit name and symbol from erc721metadata \n\ncontract CryptoNft is ERC721Connector {\n\n    //array to store nfts\n    string[] public cryptoNfts;\n\n    mapping(string => bool) _cryptoNftsExists;\n\n    function mint(string memory _cryptoNft) public {\n        require(!_cryptoNftsExists[_cryptoNft], 'Error - Cryptonft already exist');\n        cryptoNfts.push(_cryptoNft);\n        uint _id = cryptoNfts.length - 1;\n\n        _mint(msg.sender, _id);\n\n        _cryptoNftsExists[_cryptoNft] = true;\n    }\n\n    constructor() ERC721Connector('Cryptonft','CNFTS')\n    \n    {}\n\n}\n\n",
  "sourcePath": "/Users/gabrieledolfi/Documents/GitHub/Solidity_course/nft-marketplace-starter-kit/src/contracts/Cryptonft.sol",
  "compiler": {
    "name": "solc",
    "version": "0.8.17+commit.8df45f5f.Emscripten.clang"
  },
  "schemaVersion": "3.4.11",
  "updatedAt": "2023-01-18T17:42:29.177Z",
  "networkType": "ethereum",
  "devdoc": {
    "kind": "dev",
    "methods": {
      "balanceOf(address)": {
        "details": "NFTs assigned to the zero address are considered invalid, and this  function throws for queries about the zero address.",
        "params": {
          "_owner": "An address for whom to query the balance"
        },
        "returns": {
          "_0": "The number of NFTs owned by `_owner`, possibly zero"
        }
      },
      "ownerOf(uint256)": {
        "details": "NFTs assigned to zero address are considered invalid, and queries  about them do throw.",
        "params": {
          "_tokenId": "The identifier for an NFT"
        },
        "returns": {
          "_0": "The address of the owner of the NFT"
        }
      }
    },
    "version": 1
  },
  "userdoc": {
    "kind": "user",
    "methods": {
      "balanceOf(address)": {
        "notice": "Count all NFTs assigned to an owner"
      },
      "ownerOf(uint256)": {
        "notice": "Find the owner of an NFT"
      }
    },
    "version": 1
  }
}