{
  "contractName": "CryptoNft",
  "abi": [
    {
      "inputs": [],
      "stateMutability": "nonpayable",
      "type": "constructor"
    },
    {
      "anonymous": false,
      "inputs": [
        {
          "indexed": true,
          "internalType": "address",
          "name": "from",
          "type": "address"
        },
        {
          "indexed": true,
          "internalType": "address",
          "name": "to",
          "type": "address"
        },
        {
          "indexed": true,
          "internalType": "uint256",
          "name": "tokenId",
          "type": "uint256"
        }
      ],
      "name": "Transfer",
      "type": "event"
    },
    {
      "inputs": [
        {
          "internalType": "address",
          "name": "_owner",
          "type": "address"
        }
      ],
      "name": "balanceOf",
      "outputs": [
        {
          "internalType": "uint256",
          "name": "",
          "type": "uint256"
        }
      ],
      "stateMutability": "view",
      "type": "function",
      "constant": true
    },
    {
      "inputs": [
        {
          "internalType": "uint256",
          "name": "",
          "type": "uint256"
        }
      ],
      "name": "cryptoNfts",
      "outputs": [
        {
          "internalType": "string",
          "name": "",
          "type": "string"
        }
      ],
      "stateMutability": "view",
      "type": "function",
      "constant": true
    },
    {
      "inputs": [],
      "name": "name",
      "outputs": [
        {
          "internalType": "string",
          "name": "",
          "type": "string"
        }
      ],
      "stateMutability": "view",
      "type": "function",
      "constant": true
    },
    {
      "inputs": [
        {
          "internalType": "uint256",
          "name": "_tokenId",
          "type": "uint256"
        }
      ],
      "name": "ownerOf",
      "outputs": [
        {
          "internalType": "address",
          "name": "",
          "type": "address"
        }
      ],
      "stateMutability": "view",
      "type": "function",
      "constant": true
    },
    {
      "inputs": [],
      "name": "symbol",
      "outputs": [
        {
          "internalType": "string",
          "name": "",
          "type": "string"
        }
      ],
      "stateMutability": "view",
      "type": "function",
      "constant": true
    },
    {
      "inputs": [
        {
          "internalType": "uint256",
          "name": "index",
          "type": "uint256"
        }
      ],
      "name": "tokenByIndex",
      "outputs": [
        {
          "internalType": "uint256",
          "name": "",
          "type": "uint256"
        }
      ],
      "stateMutability": "view",
      "type": "function",
      "constant": true
    },
    {
      "inputs": [
        {
          "internalType": "address",
          "name": "owner",
          "type": "address"
        },
        {
          "internalType": "uint256",
          "name": "index",
          "type": "uint256"
        }
      ],
      "name": "tokenOfOwnerByIndex",
      "outputs": [
        {
          "internalType": "uint256",
          "name": "",
          "type": "uint256"
        }
      ],
      "stateMutability": "view",
      "type": "function",
      "constant": true
    },
    {
      "inputs": [],
      "name": "totalSupply",
      "outputs": [
        {
          "internalType": "uint256",
          "name": "",
          "type": "uint256"
        }
      ],
      "stateMutability": "view",
      "type": "function",
      "constant": true
    },
    {
      "inputs": [
        {
          "internalType": "string",
          "name": "_cryptoNft",
          "type": "string"
        }
      ],
      "name": "mint",
      "outputs": [],
      "stateMutability": "nonpayable",
      "type": "function"
    }
  ],
  "bytecode": "0x60806040523480156200001157600080fd5b506040518060400160405280600981526020016810dc9e5c1d1bdb999d60ba1b81525060405180604001604052806005815260200164434e46545360d81b8152508181816000908162000065919062000124565b50600162000074828262000124565b5050505050620001f0565b634e487b7160e01b600052604160045260246000fd5b600181811c90821680620000aa57607f821691505b602082108103620000cb57634e487b7160e01b600052602260045260246000fd5b50919050565b601f8211156200011f57600081815260208120601f850160051c81016020861015620000fa5750805b601f850160051c820191505b818110156200011b5782815560010162000106565b5050505b505050565b81516001600160401b038111156200014057620001406200007f565b620001588162000151845462000095565b84620000d1565b602080601f831160018114620001905760008415620001775750858301515b600019600386901b1c1916600185901b1785556200011b565b600085815260208120601f198616915b82811015620001c157888601518255948401946001909101908401620001a0565b5085821015620001e05787850151600019600388901b60f8161c191681555b5050505050600190811b01905550565b610b6480620002006000396000f3fe608060405234801561001057600080fd5b50600436106100935760003560e01c80636352211e116100665780636352211e146100ee57806370a082311461011957806395d89b411461012c57806397245da014610134578063d85d3d271461014757600080fd5b806306fdde031461009857806318160ddd146100b65780632f745c59146100c85780634f6ccce7146100db575b600080fd5b6100a061015c565b6040516100ad91906107a1565b60405180910390f35b6004545b6040519081526020016100ad565b6100ba6100d63660046107f0565b6101ee565b6100ba6100e936600461081a565b6102ea565b6101016100fc36600461081a565b610368565b6040516001600160a01b0390911681526020016100ad565b6100ba610127366004610833565b61039d565b6100a06103e1565b6100a061014236600461081a565b6103f0565b61015a61015536600461086b565b61049c565b005b60606000805461016b9061091c565b80601f01602080910402602001604051908101604052809291908181526020018280546101979061091c565b80156101e45780601f106101b9576101008083540402835291602001916101e4565b820191906000526020600020905b8154815290600101906020018083116101c757829003601f168201915b5050505050905090565b6040516370a0823160e01b81526001600160a01b038316600482015260009030906370a0823190602401602060405180830381865afa158015610235573d6000803e3d6000fd5b505050506040513d601f19601f820116820180604052508101906102599190610956565b82106102ac5760405162461bcd60e51b815260206004820152601b60248201527f6f776e657220696e646578206973206f7574206f6620626f756e64000000000060448201526064015b60405180910390fd5b6001600160a01b03831660009081526006602052604090208054839081106102d6576102d661096f565b906000526020600020015490505b92915050565b60006102f560045490565b82106103435760405162461bcd60e51b815260206004820152601c60248201527f676c6f62616c20696e646578206973206f7574206f6620626f756e640000000060448201526064016102a3565b600482815481106103565761035661096f565b90600052602060002001549050919050565b6000818152600260205260408120546001600160a01b0316806102e45760405162461bcd60e51b81526004016102a390610985565b60006001600160a01b0382166103c55760405162461bcd60e51b81526004016102a390610985565b506001600160a01b031660009081526003602052604090205490565b60606001805461016b9061091c565b6008818154811061040057600080fd5b90600052602060002001600091509050805461041b9061091c565b80601f01602080910402602001604051908101604052809291908181526020018280546104479061091c565b80156104945780601f1061046957610100808354040283529160200191610494565b820191906000526020600020905b81548152906001019060200180831161047757829003601f168201915b505050505081565b6009816040516104ac91906109c7565b9081526040519081900360200190205460ff161561050c5760405162461bcd60e51b815260206004820152601f60248201527f4572726f72202d2043727970746f6e667420616c72656164792065786973740060448201526064016102a3565b600880546001810182556000919091527ff3f7a9fe364faab93b216da50a3214154f22a0a2b415b23a84c8169e8b636ee3016105488282610a32565b5060085460009061055b90600190610b08565b9050610567338261059d565b600160098360405161057991906109c7565b908152604051908190036020019020805491151560ff199092169190911790555050565b6105a7828261062e565b6105ef81600480546000838152600560205260408120829055600182018355919091527f8a35acfbc15ff81a39ae7d344fd709f28e8600b4aa8c65c6b64bfe7fe36bd19b0155565b6001600160a01b039190911660009081526006602081815260408084208054868652600784529185208290559282526001810183559183529091200155565b6001600160a01b0382166106905760405162461bcd60e51b815260206004820152602360248201527f4552433732313a206d696e74696e6720746f20746865207a65726f206164647260448201526265737360e81b60648201526084016102a3565b6000818152600260205260409020546001600160a01b0316156106f55760405162461bcd60e51b815260206004820152601c60248201527f4552433732313a20746f6b656e20616c7265616479206d696e7465640000000060448201526064016102a3565b600081815260026020908152604080832080546001600160a01b0319166001600160a01b03871690811790915583526003909152812080546001929061073c908490610b1b565b909155505060405181906001600160a01b038416906000907fddf252ad1be2c89b69c2b068fc378daa952ba7f163c4a11628f55a4df523b3ef908290a45050565b60005b83811015610798578181015183820152602001610780565b50506000910152565b60208152600082518060208401526107c081604085016020870161077d565b601f01601f19169190910160400192915050565b80356001600160a01b03811681146107eb57600080fd5b919050565b6000806040838503121561080357600080fd5b61080c836107d4565b946020939093013593505050565b60006020828403121561082c57600080fd5b5035919050565b60006020828403121561084557600080fd5b61084e826107d4565b9392505050565b634e487b7160e01b600052604160045260246000fd5b60006020828403121561087d57600080fd5b813567ffffffffffffffff8082111561089557600080fd5b818401915084601f8301126108a957600080fd5b8135818111156108bb576108bb610855565b604051601f8201601f19908116603f011681019083821181831017156108e3576108e3610855565b816040528281528760208487010111156108fc57600080fd5b826020860160208301376000928101602001929092525095945050505050565b600181811c9082168061093057607f821691505b60208210810361095057634e487b7160e01b600052602260045260246000fd5b50919050565b60006020828403121561096857600080fd5b5051919050565b634e487b7160e01b600052603260045260246000fd5b60208082526022908201527f6f776e657220717565727920666f72206e6f6e206578697374656e7420746f6b60408201526132b760f11b606082015260800190565b600082516109d981846020870161077d565b9190910192915050565b601f821115610a2d57600081815260208120601f850160051c81016020861015610a0a5750805b601f850160051c820191505b81811015610a2957828155600101610a16565b5050505b505050565b815167ffffffffffffffff811115610a4c57610a4c610855565b610a6081610a5a845461091c565b846109e3565b602080601f831160018114610a955760008415610a7d5750858301515b600019600386901b1c1916600185901b178555610a29565b600085815260208120601f198616915b82811015610ac457888601518255948401946001909101908401610aa5565b5085821015610ae25787850151600019600388901b60f8161c191681555b5050505050600190811b01905550565b634e487b7160e01b600052601160045260246000fd5b818103818111156102e4576102e4610af2565b808201808211156102e4576102e4610af256fea2646970667358221220cb3d6746fcbef0041ab05a709d7c94a970dcf7be55e2f652db6ecc99a262c01664736f6c63430008110033",
  "immutableReferences": {},
  "source": "//SPDX-License-Identifier: MIT\npragma solidity ^0.8.0;\n\nimport \"./ERC721Connector.sol\";\n\n//initialize this contract to inherit name and symbol from erc721metadata \n\ncontract CryptoNft is ERC721Connector {\n\n    //array to store nfts\n    string[] public cryptoNfts;\n\n    mapping(string => bool) _cryptoNftsExists;\n\n    function mint(string memory _cryptoNft) public {\n        require(!_cryptoNftsExists[_cryptoNft], 'Error - Cryptonft already exist');\n        cryptoNfts.push(_cryptoNft);\n        uint _id = cryptoNfts.length - 1;\n\n        _mint(msg.sender, _id);\n\n        _cryptoNftsExists[_cryptoNft] = true;\n    }\n\n    constructor() ERC721Connector('Cryptonft','CNFTS')\n    \n    {}\n\n}\n\n",
  "sourcePath": "/Users/gabrieledolfi/Documents/GitHub/Solidity_course/nft-marketplace-starter-kit/src/contracts/Cryptonft.sol",
  "compiler": {
    "name": "solc",
    "version": "0.8.17+commit.8df45f5f.Emscripten.clang"
  },
  "schemaVersion": "3.4.11",
  "updatedAt": "2023-01-20T16:04:13.965Z",
  "networkType": "ethereum",
  "devdoc": {
    "kind": "dev",
    "methods": {
      "balanceOf(address)": {
        "details": "NFTs assigned to the zero address are considered invalid, and this  function throws for queries about the zero address.",
        "params": {
          "_owner": "An address for whom to query the balance"
        },
        "returns": {
          "_0": "The number of NFTs owned by `_owner`, possibly zero"
        }
      },
      "ownerOf(uint256)": {
        "details": "NFTs assigned to zero address are considered invalid, and queries  about them do throw.",
        "params": {
          "_tokenId": "The identifier for an NFT"
        },
        "returns": {
          "_0": "The address of the owner of the NFT"
        }
      }
    },
    "version": 1
  },
  "userdoc": {
    "kind": "user",
    "methods": {
      "balanceOf(address)": {
        "notice": "Count all NFTs assigned to an owner"
      },
      "ownerOf(uint256)": {
        "notice": "Find the owner of an NFT"
      }
    },
    "version": 1
  }
}