{
  "contractName": "Cryptonft",
  "abi": [
    {
      "inputs": [],
      "stateMutability": "nonpayable",
      "type": "constructor"
    },
    {
      "anonymous": false,
      "inputs": [
        {
          "indexed": true,
          "internalType": "address",
          "name": "from",
          "type": "address"
        },
        {
          "indexed": true,
          "internalType": "address",
          "name": "to",
          "type": "address"
        },
        {
          "indexed": true,
          "internalType": "uint256",
          "name": "tokenId",
          "type": "uint256"
        }
      ],
      "name": "Transfer",
      "type": "event"
    },
    {
      "inputs": [
        {
          "internalType": "uint256",
          "name": "",
          "type": "uint256"
        }
      ],
      "name": "cryptoNfts",
      "outputs": [
        {
          "internalType": "string",
          "name": "",
          "type": "string"
        }
      ],
      "stateMutability": "view",
      "type": "function",
      "constant": true
    },
    {
      "inputs": [],
      "name": "name",
      "outputs": [
        {
          "internalType": "string",
          "name": "",
          "type": "string"
        }
      ],
      "stateMutability": "view",
      "type": "function",
      "constant": true
    },
    {
      "inputs": [],
      "name": "symbol",
      "outputs": [
        {
          "internalType": "string",
          "name": "",
          "type": "string"
        }
      ],
      "stateMutability": "view",
      "type": "function",
      "constant": true
    },
    {
      "inputs": [
        {
          "internalType": "string",
          "name": "_cryptoNft",
          "type": "string"
        }
      ],
      "name": "mint",
      "outputs": [],
      "stateMutability": "nonpayable",
      "type": "function"
    }
  ],
  "bytecode": "0x608060405234801561001057600080fd5b506040518060400160405280600981526020016810dc9e5c1d1bdb999d60ba1b81525060405180604001604052806005815260200164434e46545360d81b815250818181600090816100629190610118565b50600161006f8282610118565b50505050506101d7565b634e487b7160e01b600052604160045260246000fd5b600181811c908216806100a357607f821691505b6020821081036100c357634e487b7160e01b600052602260045260246000fd5b50919050565b601f82111561011357600081815260208120601f850160051c810160208610156100f05750805b601f850160051c820191505b8181101561010f578281556001016100fc565b5050505b505050565b81516001600160401b0381111561013157610131610079565b6101458161013f845461008f565b846100c9565b602080601f83116001811461017a57600084156101625750858301515b600019600386901b1c1916600185901b17855561010f565b600085815260208120601f198616915b828110156101a95788860151825594840194600190910190840161018a565b50858210156101c75787850151600019600388901b60f8161c191681555b5050505050600190811b01905550565b610755806101e66000396000f3fe608060405234801561001057600080fd5b506004361061004c5760003560e01c806306fdde031461005157806395d89b411461006f57806397245da014610077578063d85d3d271461008a575b600080fd5b61005961009f565b6040516100669190610465565b60405180910390f35b610059610131565b610059610085366004610498565b610140565b61009d6100983660046104c7565b6101ec565b005b6060600080546100ae90610578565b80601f01602080910402602001604051908101604052809291908181526020018280546100da90610578565b80156101275780601f106100fc57610100808354040283529160200191610127565b820191906000526020600020905b81548152906001019060200180831161010a57829003601f168201915b5050505050905090565b6060600180546100ae90610578565b6004818154811061015057600080fd5b90600052602060002001600091509050805461016b90610578565b80601f016020809104026020016040519081016040528092919081815260200182805461019790610578565b80156101e45780601f106101b9576101008083540402835291602001916101e4565b820191906000526020600020905b8154815290600101906020018083116101c757829003601f168201915b505050505081565b6005816040516101fc91906105b2565b9081526040519081900360200190205460ff16156102615760405162461bcd60e51b815260206004820152601f60248201527f4572726f72202d2043727970746f6e667420616c72656164792065786973740060448201526064015b60405180910390fd5b600480546001810182556000919091527f8a35acfbc15ff81a39ae7d344fd709f28e8600b4aa8c65c6b64bfe7fe36bd19b0161029d828261061d565b506004546000906102b0906001906106f3565b90506102bc33826102f2565b60016005836040516102ce91906105b2565b908152604051908190036020019020805491151560ff199092169190911790555050565b6001600160a01b0382166103545760405162461bcd60e51b815260206004820152602360248201527f4552433732313a206d696e74696e6720746f20746865207a65726f206164647260448201526265737360e81b6064820152608401610258565b6000818152600260205260409020546001600160a01b0316156103b95760405162461bcd60e51b815260206004820152601c60248201527f4552433732313a20746f6b656e20616c7265616479206d696e746564000000006044820152606401610258565b600081815260026020908152604080832080546001600160a01b0319166001600160a01b03871690811790915583526003909152812080546001929061040090849061070c565b909155505060405181906001600160a01b038416906000907fddf252ad1be2c89b69c2b068fc378daa952ba7f163c4a11628f55a4df523b3ef908290a45050565b60005b8381101561045c578181015183820152602001610444565b50506000910152565b6020815260008251806020840152610484816040850160208701610441565b601f01601f19169190910160400192915050565b6000602082840312156104aa57600080fd5b5035919050565b634e487b7160e01b600052604160045260246000fd5b6000602082840312156104d957600080fd5b813567ffffffffffffffff808211156104f157600080fd5b818401915084601f83011261050557600080fd5b813581811115610517576105176104b1565b604051601f8201601f19908116603f0116810190838211818310171561053f5761053f6104b1565b8160405282815287602084870101111561055857600080fd5b826020860160208301376000928101602001929092525095945050505050565b600181811c9082168061058c57607f821691505b6020821081036105ac57634e487b7160e01b600052602260045260246000fd5b50919050565b600082516105c4818460208701610441565b9190910192915050565b601f82111561061857600081815260208120601f850160051c810160208610156105f55750805b601f850160051c820191505b8181101561061457828155600101610601565b5050505b505050565b815167ffffffffffffffff811115610637576106376104b1565b61064b816106458454610578565b846105ce565b602080601f83116001811461068057600084156106685750858301515b600019600386901b1c1916600185901b178555610614565b600085815260208120601f198616915b828110156106af57888601518255948401946001909101908401610690565b50858210156106cd5787850151600019600388901b60f8161c191681555b5050505050600190811b01905550565b634e487b7160e01b600052601160045260246000fd5b81810381811115610706576107066106dd565b92915050565b80820180821115610706576107066106dd56fea2646970667358221220431bd6f03e760617c055180e364246c863176238cbc23770adbab85664fd323864736f6c63430008110033",
  "immutableReferences": {},
  "source": "//SPDX-License-Identifier: MIT\npragma solidity ^0.8.0;\n\nimport \"./ERC721Connector.sol\";\n\n//initialize this contract to inherit name and symbol from erc721metadata \n\ncontract Cryptonft is ERC721Connector {\n\n    //array to store nfts\n    string[] public cryptoNfts;\n\n    mapping(string => bool) _cryptoNftsExists;\n\n    function mint(string memory _cryptoNft) public {\n        require(!_cryptoNftsExists[_cryptoNft], 'Error - Cryptonft already exist');\n        cryptoNfts.push(_cryptoNft);\n        uint _id = cryptoNfts.length - 1;\n\n        _mint(msg.sender, _id);\n\n        _cryptoNftsExists[_cryptoNft] = true;\n    }\n\n    constructor() ERC721Connector('Cryptonft','CNFTS')\n    \n    {}\n\n}\n\n",
  "sourcePath": "/Users/gabrieledolfi/Documents/GitHub/Solidity_course/nft-marketplace-starter-kit/src/contracts/cryptoNfts.sol",
  "compiler": {
    "name": "solc",
    "version": "0.8.17+commit.8df45f5f.Emscripten.clang"
  },
  "schemaVersion": "3.4.11",
  "updatedAt": "2023-01-18T14:52:55.336Z",
  "networkType": "ethereum",
  "devdoc": {
    "kind": "dev",
    "methods": {},
    "version": 1
  },
  "userdoc": {
    "kind": "user",
    "methods": {},
    "version": 1
  }
}