{
  "contractName": "CryptoNft",
  "abi": [
    {
      "inputs": [],
      "stateMutability": "nonpayable",
      "type": "constructor"
    },
    {
      "anonymous": false,
      "inputs": [
        {
          "indexed": true,
          "internalType": "address",
          "name": "from",
          "type": "address"
        },
        {
          "indexed": true,
          "internalType": "address",
          "name": "to",
          "type": "address"
        },
        {
          "indexed": true,
          "internalType": "uint256",
          "name": "tokenId",
          "type": "uint256"
        }
      ],
      "name": "Transfer",
      "type": "event"
    },
    {
      "inputs": [
        {
          "internalType": "address",
          "name": "_owner",
          "type": "address"
        }
      ],
      "name": "balanceOf",
      "outputs": [
        {
          "internalType": "uint256",
          "name": "",
          "type": "uint256"
        }
      ],
      "stateMutability": "view",
      "type": "function",
      "constant": true
    },
    {
      "inputs": [
        {
          "internalType": "uint256",
          "name": "",
          "type": "uint256"
        }
      ],
      "name": "cryptoNfts",
      "outputs": [
        {
          "internalType": "string",
          "name": "",
          "type": "string"
        }
      ],
      "stateMutability": "view",
      "type": "function",
      "constant": true
    },
    {
      "inputs": [],
      "name": "name",
      "outputs": [
        {
          "internalType": "string",
          "name": "",
          "type": "string"
        }
      ],
      "stateMutability": "view",
      "type": "function",
      "constant": true
    },
    {
      "inputs": [
        {
          "internalType": "uint256",
          "name": "_tokenId",
          "type": "uint256"
        }
      ],
      "name": "ownerOf",
      "outputs": [
        {
          "internalType": "address",
          "name": "",
          "type": "address"
        }
      ],
      "stateMutability": "view",
      "type": "function",
      "constant": true
    },
    {
      "inputs": [],
      "name": "symbol",
      "outputs": [
        {
          "internalType": "string",
          "name": "",
          "type": "string"
        }
      ],
      "stateMutability": "view",
      "type": "function",
      "constant": true
    },
    {
      "inputs": [],
      "name": "totalSupply",
      "outputs": [
        {
          "internalType": "uint256",
          "name": "",
          "type": "uint256"
        }
      ],
      "stateMutability": "view",
      "type": "function",
      "constant": true
    },
    {
      "inputs": [
        {
          "internalType": "string",
          "name": "_cryptoNft",
          "type": "string"
        }
      ],
      "name": "mint",
      "outputs": [],
      "stateMutability": "nonpayable",
      "type": "function"
    }
  ],
  "bytecode": "0x608060405234801561001057600080fd5b506040518060400160405280600981526020016810dc9e5c1d1bdb999d60ba1b81525060405180604001604052806005815260200164434e46545360d81b815250818181600090816100629190610118565b50600161006f8282610118565b50505050506101d7565b634e487b7160e01b600052604160045260246000fd5b600181811c908216806100a357607f821691505b6020821081036100c357634e487b7160e01b600052602260045260246000fd5b50919050565b601f82111561011357600081815260208120601f850160051c810160208610156100f05750805b601f850160051c820191505b8181101561010f578281556001016100fc565b5050505b505050565b81516001600160401b0381111561013157610131610079565b6101458161013f845461008f565b846100c9565b602080601f83116001811461017a57600084156101625750858301515b600019600386901b1c1916600185901b17855561010f565b600085815260208120601f198616915b828110156101a95788860151825594840194600190910190840161018a565b50858210156101c75787850151600019600388901b60f8161c191681555b5050505050600190811b01905550565b61090c806101e66000396000f3fe608060405234801561001057600080fd5b506004361061007d5760003560e01c806370a082311161005b57806370a08231146100dd57806395d89b41146100f057806397245da0146100f8578063d85d3d271461010b57600080fd5b806306fdde031461008257806318160ddd146100a05780636352211e146100b2575b600080fd5b61008a610120565b60405161009791906105b0565b60405180910390f35b6004545b604051908152602001610097565b6100c56100c03660046105e3565b6101b2565b6040516001600160a01b039091168152602001610097565b6100a46100eb3660046105fc565b6101f6565b61008a61023a565b61008a6101063660046105e3565b610249565b61011e610119366004610642565b6102f5565b005b60606000805461012f906106f3565b80601f016020809104026020016040519081016040528092919081815260200182805461015b906106f3565b80156101a85780601f1061017d576101008083540402835291602001916101a8565b820191906000526020600020905b81548152906001019060200180831161018b57829003601f168201915b5050505050905090565b6000818152600260205260408120546001600160a01b0316806101f05760405162461bcd60e51b81526004016101e79061072d565b60405180910390fd5b92915050565b60006001600160a01b03821661021e5760405162461bcd60e51b81526004016101e79061072d565b506001600160a01b031660009081526003602052604090205490565b60606001805461012f906106f3565b6008818154811061025957600080fd5b906000526020600020016000915090508054610274906106f3565b80601f01602080910402602001604051908101604052809291908181526020018280546102a0906106f3565b80156102ed5780601f106102c2576101008083540402835291602001916102ed565b820191906000526020600020905b8154815290600101906020018083116102d057829003601f168201915b505050505081565b600981604051610305919061076f565b9081526040519081900360200190205460ff16156103655760405162461bcd60e51b815260206004820152601f60248201527f4572726f72202d2043727970746f6e667420616c72656164792065786973740060448201526064016101e7565b600880546001810182556000919091527ff3f7a9fe364faab93b216da50a3214154f22a0a2b415b23a84c8169e8b636ee3016103a182826107da565b506008546000906103b4906001906108b0565b90506103c033826103f6565b60016009836040516103d2919061076f565b908152604051908190036020019020805491151560ff199092169190911790555050565b610400828261043d565b61043981600480546001810182556000919091527f8a35acfbc15ff81a39ae7d344fd709f28e8600b4aa8c65c6b64bfe7fe36bd19b0155565b5050565b6001600160a01b03821661049f5760405162461bcd60e51b815260206004820152602360248201527f4552433732313a206d696e74696e6720746f20746865207a65726f206164647260448201526265737360e81b60648201526084016101e7565b6000818152600260205260409020546001600160a01b0316156105045760405162461bcd60e51b815260206004820152601c60248201527f4552433732313a20746f6b656e20616c7265616479206d696e7465640000000060448201526064016101e7565b600081815260026020908152604080832080546001600160a01b0319166001600160a01b03871690811790915583526003909152812080546001929061054b9084906108c3565b909155505060405181906001600160a01b038416906000907fddf252ad1be2c89b69c2b068fc378daa952ba7f163c4a11628f55a4df523b3ef908290a45050565b60005b838110156105a757818101518382015260200161058f565b50506000910152565b60208152600082518060208401526105cf81604085016020870161058c565b601f01601f19169190910160400192915050565b6000602082840312156105f557600080fd5b5035919050565b60006020828403121561060e57600080fd5b81356001600160a01b038116811461062557600080fd5b9392505050565b634e487b7160e01b600052604160045260246000fd5b60006020828403121561065457600080fd5b813567ffffffffffffffff8082111561066c57600080fd5b818401915084601f83011261068057600080fd5b8135818111156106925761069261062c565b604051601f8201601f19908116603f011681019083821181831017156106ba576106ba61062c565b816040528281528760208487010111156106d357600080fd5b826020860160208301376000928101602001929092525095945050505050565b600181811c9082168061070757607f821691505b60208210810361072757634e487b7160e01b600052602260045260246000fd5b50919050565b60208082526022908201527f6f776e657220717565727920666f72206e6f6e206578697374656e7420746f6b60408201526132b760f11b606082015260800190565b6000825161078181846020870161058c565b9190910192915050565b601f8211156107d557600081815260208120601f850160051c810160208610156107b25750805b601f850160051c820191505b818110156107d1578281556001016107be565b5050505b505050565b815167ffffffffffffffff8111156107f4576107f461062c565b6108088161080284546106f3565b8461078b565b602080601f83116001811461083d57600084156108255750858301515b600019600386901b1c1916600185901b1785556107d1565b600085815260208120601f198616915b8281101561086c5788860151825594840194600190910190840161084d565b508582101561088a5787850151600019600388901b60f8161c191681555b5050505050600190811b01905550565b634e487b7160e01b600052601160045260246000fd5b818103818111156101f0576101f061089a565b808201808211156101f0576101f061089a56fea2646970667358221220eecaccaaead578949e1cf9543a09b325732f603355b1802f212cc399d89384c864736f6c63430008110033",
  "immutableReferences": {},
  "source": "//SPDX-License-Identifier: MIT\npragma solidity ^0.8.0;\n\nimport \"./ERC721Connector.sol\";\n\n//initialize this contract to inherit name and symbol from erc721metadata \n\ncontract CryptoNft is ERC721Connector {\n\n    //array to store nfts\n    string[] public cryptoNfts;\n\n    mapping(string => bool) _cryptoNftsExists;\n\n    function mint(string memory _cryptoNft) public {\n        require(!_cryptoNftsExists[_cryptoNft], 'Error - Cryptonft already exist');\n        cryptoNfts.push(_cryptoNft);\n        uint _id = cryptoNfts.length - 1;\n\n        _mint(msg.sender, _id);\n\n        _cryptoNftsExists[_cryptoNft] = true;\n    }\n\n    constructor() ERC721Connector('Cryptonft','CNFTS')\n    \n    {}\n\n}\n\n",
  "sourcePath": "/Users/gabrieledolfi/Documents/GitHub/Solidity_course/nft-marketplace-starter-kit/src/contracts/Cryptonft.sol",
  "compiler": {
    "name": "solc",
    "version": "0.8.17+commit.8df45f5f.Emscripten.clang"
  },
  "schemaVersion": "3.4.11",
  "updatedAt": "2023-01-19T16:53:05.620Z",
  "networkType": "ethereum",
  "devdoc": {
    "kind": "dev",
    "methods": {
      "balanceOf(address)": {
        "details": "NFTs assigned to the zero address are considered invalid, and this  function throws for queries about the zero address.",
        "params": {
          "_owner": "An address for whom to query the balance"
        },
        "returns": {
          "_0": "The number of NFTs owned by `_owner`, possibly zero"
        }
      },
      "ownerOf(uint256)": {
        "details": "NFTs assigned to zero address are considered invalid, and queries  about them do throw.",
        "params": {
          "_tokenId": "The identifier for an NFT"
        },
        "returns": {
          "_0": "The address of the owner of the NFT"
        }
      },
      "totalSupply()": {
        "returns": {
          "_0": "A count of valid NFTs tracked by this contract, where each one of  them has an assigned and queryable owner not equal to the zero address"
        }
      }
    },
    "version": 1
  },
  "userdoc": {
    "kind": "user",
    "methods": {
      "balanceOf(address)": {
        "notice": "Count all NFTs assigned to an owner"
      },
      "ownerOf(uint256)": {
        "notice": "Find the owner of an NFT"
      },
      "totalSupply()": {
        "notice": "Count NFTs tracked by this contract"
      }
    },
    "version": 1
  }
}