{
  "contractName": "CryptoNft",
  "abi": [
    {
      "inputs": [],
      "stateMutability": "nonpayable",
      "type": "constructor"
    },
    {
      "anonymous": false,
      "inputs": [
        {
          "indexed": true,
          "internalType": "address",
          "name": "owner",
          "type": "address"
        },
        {
          "indexed": true,
          "internalType": "address",
          "name": "approved",
          "type": "address"
        },
        {
          "indexed": true,
          "internalType": "uint256",
          "name": "tokenId",
          "type": "uint256"
        }
      ],
      "name": "Approval",
      "type": "event"
    },
    {
      "anonymous": false,
      "inputs": [
        {
          "indexed": true,
          "internalType": "address",
          "name": "from",
          "type": "address"
        },
        {
          "indexed": true,
          "internalType": "address",
          "name": "to",
          "type": "address"
        },
        {
          "indexed": true,
          "internalType": "uint256",
          "name": "tokenId",
          "type": "uint256"
        }
      ],
      "name": "Transfer",
      "type": "event"
    },
    {
      "inputs": [
        {
          "internalType": "address",
          "name": "_to",
          "type": "address"
        },
        {
          "internalType": "uint256",
          "name": "tokenId",
          "type": "uint256"
        }
      ],
      "name": "approve",
      "outputs": [],
      "stateMutability": "nonpayable",
      "type": "function"
    },
    {
      "inputs": [
        {
          "internalType": "address",
          "name": "_owner",
          "type": "address"
        }
      ],
      "name": "balanceOf",
      "outputs": [
        {
          "internalType": "uint256",
          "name": "",
          "type": "uint256"
        }
      ],
      "stateMutability": "view",
      "type": "function",
      "constant": true
    },
    {
      "inputs": [
        {
          "internalType": "uint256",
          "name": "",
          "type": "uint256"
        }
      ],
      "name": "cryptoNfts",
      "outputs": [
        {
          "internalType": "string",
          "name": "",
          "type": "string"
        }
      ],
      "stateMutability": "view",
      "type": "function",
      "constant": true
    },
    {
      "inputs": [],
      "name": "name",
      "outputs": [
        {
          "internalType": "string",
          "name": "",
          "type": "string"
        }
      ],
      "stateMutability": "view",
      "type": "function",
      "constant": true
    },
    {
      "inputs": [
        {
          "internalType": "uint256",
          "name": "_tokenId",
          "type": "uint256"
        }
      ],
      "name": "ownerOf",
      "outputs": [
        {
          "internalType": "address",
          "name": "",
          "type": "address"
        }
      ],
      "stateMutability": "view",
      "type": "function",
      "constant": true
    },
    {
      "inputs": [],
      "name": "symbol",
      "outputs": [
        {
          "internalType": "string",
          "name": "",
          "type": "string"
        }
      ],
      "stateMutability": "view",
      "type": "function",
      "constant": true
    },
    {
      "inputs": [
        {
          "internalType": "uint256",
          "name": "index",
          "type": "uint256"
        }
      ],
      "name": "tokenByIndex",
      "outputs": [
        {
          "internalType": "uint256",
          "name": "",
          "type": "uint256"
        }
      ],
      "stateMutability": "view",
      "type": "function",
      "constant": true
    },
    {
      "inputs": [
        {
          "internalType": "address",
          "name": "owner",
          "type": "address"
        },
        {
          "internalType": "uint256",
          "name": "index",
          "type": "uint256"
        }
      ],
      "name": "tokenOfOwnerByIndex",
      "outputs": [
        {
          "internalType": "uint256",
          "name": "",
          "type": "uint256"
        }
      ],
      "stateMutability": "view",
      "type": "function",
      "constant": true
    },
    {
      "inputs": [],
      "name": "totalSupply",
      "outputs": [
        {
          "internalType": "uint256",
          "name": "",
          "type": "uint256"
        }
      ],
      "stateMutability": "view",
      "type": "function",
      "constant": true
    },
    {
      "inputs": [
        {
          "internalType": "address",
          "name": "_from",
          "type": "address"
        },
        {
          "internalType": "address",
          "name": "_to",
          "type": "address"
        },
        {
          "internalType": "uint256",
          "name": "_tokenId",
          "type": "uint256"
        }
      ],
      "name": "transferFrom",
      "outputs": [],
      "stateMutability": "nonpayable",
      "type": "function"
    },
    {
      "inputs": [
        {
          "internalType": "string",
          "name": "_cryptoNft",
          "type": "string"
        }
      ],
      "name": "mint",
      "outputs": [],
      "stateMutability": "nonpayable",
      "type": "function"
    }
  ],
  "bytecode": "0x60806040523480156200001157600080fd5b506040518060400160405280600981526020016810dc9e5c1d1bdb999d60ba1b81525060405180604001604052806005815260200164434e46545360d81b8152508181816000908162000065919062000124565b50600162000074828262000124565b5050505050620001f0565b634e487b7160e01b600052604160045260246000fd5b600181811c90821680620000aa57607f821691505b602082108103620000cb57634e487b7160e01b600052602260045260246000fd5b50919050565b601f8211156200011f57600081815260208120601f850160051c81016020861015620000fa5750805b601f850160051c820191505b818110156200011b5782815560010162000106565b5050505b505050565b81516001600160401b038111156200014057620001406200007f565b620001588162000151845462000095565b84620000d1565b602080601f831160018114620001905760008415620001775750858301515b600019600386901b1c1916600185901b1785556200011b565b600085815260208120601f198616915b82811015620001c157888601518255948401946001909101908401620001a0565b5085821015620001e05787850151600019600388901b60f8161c191681555b5050505050600190811b01905550565b610eec80620002006000396000f3fe608060405234801561001057600080fd5b50600436106100a95760003560e01c80634f6ccce7116100715780634f6ccce7146101195780636352211e1461012c57806370a082311461015757806395d89b411461016a57806397245da014610172578063d85d3d271461018557600080fd5b806306fdde03146100ae578063095ea7b3146100cc57806318160ddd146100e157806323b872dd146100f35780632f745c5914610106575b600080fd5b6100b6610198565b6040516100c39190610b07565b60405180910390f35b6100df6100da366004610b56565b61022a565b005b6005545b6040519081526020016100c3565b6100df610101366004610b80565b610370565b6100e5610114366004610b56565b610393565b6100e5610127366004610bbc565b61042a565b61013f61013a366004610bbc565b6104a8565b6040516001600160a01b0390911681526020016100c3565b6100e5610165366004610bd5565b6104dd565b6100b6610521565b6100b6610180366004610bbc565b610530565b6100df610193366004610c0d565b6105dc565b6060600080546101a790610cbe565b80601f01602080910402602001604051908101604052809291908181526020018280546101d390610cbe565b80156102205780601f106101f557610100808354040283529160200191610220565b820191906000526020600020905b81548152906001019060200180831161020357829003601f168201915b5050505050905090565b6000610235826104a8565b9050806001600160a01b0316836001600160a01b0316036102a75760405162461bcd60e51b815260206004820152602160248201527f4572726f72202d20617070726f76616c20746f2063757272656e74206f776e656044820152603960f91b60648201526084015b60405180910390fd5b336001600160a01b038216146103145760405162461bcd60e51b815260206004820152602c60248201527f43757272656e742063616c6c6572206973206e6f7420746865206f776e65722060448201526b37b3103a3432903a37b5b2b760a11b606482015260840161029e565b60008281526004602052604080822080546001600160a01b0319166001600160a01b0387811691821790925591518593918516917f8c5be1e5ebec7d5bd14f71427d1e84f3dd0314c0f7b2291e5b200ac8c7c3b92591a4505050565b61037a33826106dd565b61038357600080fd5b61038e83838361075a565b505050565b600061039e836104dd565b82106103ec5760405162461bcd60e51b815260206004820152601b60248201527f6f776e657220696e646578206973206f7574206f6620626f756e640000000000604482015260640161029e565b6001600160a01b038316600090815260076020526040902080548390811061041657610416610cf8565b906000526020600020015490505b92915050565b600061043560055490565b82106104835760405162461bcd60e51b815260206004820152601c60248201527f676c6f62616c20696e646578206973206f7574206f6620626f756e6400000000604482015260640161029e565b6005828154811061049657610496610cf8565b90600052602060002001549050919050565b6000818152600260205260408120546001600160a01b0316806104245760405162461bcd60e51b815260040161029e90610d0e565b60006001600160a01b0382166105055760405162461bcd60e51b815260040161029e90610d0e565b506001600160a01b031660009081526003602052604090205490565b6060600180546101a790610cbe565b6009818154811061054057600080fd5b90600052602060002001600091509050805461055b90610cbe565b80601f016020809104026020016040519081016040528092919081815260200182805461058790610cbe565b80156105d45780601f106105a9576101008083540402835291602001916105d4565b820191906000526020600020905b8154815290600101906020018083116105b757829003601f168201915b505050505081565b600a816040516105ec9190610d50565b9081526040519081900360200190205460ff161561064c5760405162461bcd60e51b815260206004820152601f60248201527f4572726f72202d2043727970746f6e667420616c726561647920657869737400604482015260640161029e565b600980546001810182556000919091527f6e1540171b6c0c960b71a7020d9f60077f6af931a8bbf590da0223dacf75c7af016106888282610dba565b5060095460009061069b90600190610e90565b90506106a73382610903565b6001600a836040516106b99190610d50565b908152604051908190036020019020805491151560ff199092169190911790555050565b6000818152600260205260408120546001600160a01b03166107385760405162461bcd60e51b81526020600482015260146024820152731d1bdad95b88191bd95cc81b9bdd08195e1a5cdd60621b604482015260640161029e565b6000610743836104a8565b6001600160a01b0385811691161491505092915050565b6001600160a01b0382166107c65760405162461bcd60e51b815260206004820152602d60248201527f6572726f72202d2045524337323131207472616e7366657220746f207468652060448201526c7a65726f20616464726573737360981b606482015260840161029e565b826001600160a01b03166107d9826104a8565b6001600160a01b03161461084b5760405162461bcd60e51b815260206004820152603360248201527f547279696e6720746f207472616e73666572206120746f6b656e20746865206160448201527232323932b9b9903237b2b9903737ba1037bbb760691b606482015260840161029e565b6001600160a01b0383166000908152600360205260408120805460019290610874908490610e90565b90915550506001600160a01b03821660009081526003602052604081208054600192906108a2908490610ea3565b909155505060008181526002602052604080822080546001600160a01b0319166001600160a01b0386811691821790925591518493918716917fddf252ad1be2c89b69c2b068fc378daa952ba7f163c4a11628f55a4df523b3ef91a4505050565b61090d8282610994565b61095581600580546000838152600660205260408120829055600182018355919091527f036b6384b5eca791c62761152d0c79bb0604c104a5fb6f4eb0703f3154bb3db00155565b6001600160a01b039190911660009081526007602081815260408084208054868652600884529185208290559282526001810183559183529091200155565b6001600160a01b0382166109f65760405162461bcd60e51b815260206004820152602360248201527f4552433732313a206d696e74696e6720746f20746865207a65726f206164647260448201526265737360e81b606482015260840161029e565b6000818152600260205260409020546001600160a01b031615610a5b5760405162461bcd60e51b815260206004820152601c60248201527f4552433732313a20746f6b656e20616c7265616479206d696e74656400000000604482015260640161029e565b600081815260026020908152604080832080546001600160a01b0319166001600160a01b038716908117909155835260039091528120805460019290610aa2908490610ea3565b909155505060405181906001600160a01b038416906000907fddf252ad1be2c89b69c2b068fc378daa952ba7f163c4a11628f55a4df523b3ef908290a45050565b60005b83811015610afe578181015183820152602001610ae6565b50506000910152565b6020815260008251806020840152610b26816040850160208701610ae3565b601f01601f19169190910160400192915050565b80356001600160a01b0381168114610b5157600080fd5b919050565b60008060408385031215610b6957600080fd5b610b7283610b3a565b946020939093013593505050565b600080600060608486031215610b9557600080fd5b610b9e84610b3a565b9250610bac60208501610b3a565b9150604084013590509250925092565b600060208284031215610bce57600080fd5b5035919050565b600060208284031215610be757600080fd5b610bf082610b3a565b9392505050565b634e487b7160e01b600052604160045260246000fd5b600060208284031215610c1f57600080fd5b813567ffffffffffffffff80821115610c3757600080fd5b818401915084601f830112610c4b57600080fd5b813581811115610c5d57610c5d610bf7565b604051601f8201601f19908116603f01168101908382118183101715610c8557610c85610bf7565b81604052828152876020848701011115610c9e57600080fd5b826020860160208301376000928101602001929092525095945050505050565b600181811c90821680610cd257607f821691505b602082108103610cf257634e487b7160e01b600052602260045260246000fd5b50919050565b634e487b7160e01b600052603260045260246000fd5b60208082526022908201527f6f776e657220717565727920666f72206e6f6e206578697374656e7420746f6b60408201526132b760f11b606082015260800190565b60008251610d62818460208701610ae3565b9190910192915050565b601f82111561038e57600081815260208120601f850160051c81016020861015610d935750805b601f850160051c820191505b81811015610db257828155600101610d9f565b505050505050565b815167ffffffffffffffff811115610dd457610dd4610bf7565b610de881610de28454610cbe565b84610d6c565b602080601f831160018114610e1d5760008415610e055750858301515b600019600386901b1c1916600185901b178555610db2565b600085815260208120601f198616915b82811015610e4c57888601518255948401946001909101908401610e2d565b5085821015610e6a5787850151600019600388901b60f8161c191681555b5050505050600190811b01905550565b634e487b7160e01b600052601160045260246000fd5b8181038181111561042457610424610e7a565b8082018082111561042457610424610e7a56fea2646970667358221220b85a8c0949695c403afbf8a06411a7377ebf215867b9823c4260fa063ba305a264736f6c63430008110033",
  "immutableReferences": {},
  "source": "//SPDX-License-Identifier: MIT\npragma solidity ^0.8.0;\n\nimport \"./ERC721Connector.sol\";\n\n//initialize this contract to inherit name and symbol from erc721metadata \n\ncontract CryptoNft is ERC721Connector {\n\n    //array to store nfts\n    string[] public cryptoNfts;\n\n    mapping(string => bool) _cryptoNftsExists;\n\n    function mint(string memory _cryptoNft) public {\n        require(!_cryptoNftsExists[_cryptoNft], 'Error - Cryptonft already exist');\n        cryptoNfts.push(_cryptoNft);\n        uint _id = cryptoNfts.length - 1;\n\n        _mint(msg.sender, _id);\n\n        _cryptoNftsExists[_cryptoNft] = true;\n    }\n\n    constructor() ERC721Connector('Cryptonft','CNFTS')\n    \n    {}\n\n}\n\n",
  "sourcePath": "/Users/gabrieledolfi/Documents/GitHub/Solidity_course/nft-marketplace-starter-kit/src/contracts/Cryptonft.sol",
  "compiler": {
    "name": "solc",
    "version": "0.8.17+commit.8df45f5f.Emscripten.clang"
  },
  "schemaVersion": "3.4.11",
  "updatedAt": "2023-01-23T18:04:38.093Z",
  "networkType": "ethereum",
  "devdoc": {
    "kind": "dev",
    "methods": {
      "balanceOf(address)": {
        "details": "NFTs assigned to the zero address are considered invalid, and this  function throws for queries about the zero address.",
        "params": {
          "_owner": "An address for whom to query the balance"
        },
        "returns": {
          "_0": "The number of NFTs owned by `_owner`, possibly zero"
        }
      },
      "ownerOf(uint256)": {
        "details": "NFTs assigned to zero address are considered invalid, and queries  about them do throw.",
        "params": {
          "_tokenId": "The identifier for an NFT"
        },
        "returns": {
          "_0": "The address of the owner of the NFT"
        }
      }
    },
    "version": 1
  },
  "userdoc": {
    "kind": "user",
    "methods": {
      "balanceOf(address)": {
        "notice": "Count all NFTs assigned to an owner"
      },
      "ownerOf(uint256)": {
        "notice": "Find the owner of an NFT"
      }
    },
    "version": 1
  }
}