{
  "contractName": "CryptoNft",
  "abi": [
    {
      "inputs": [],
      "stateMutability": "nonpayable",
      "type": "constructor"
    },
    {
      "anonymous": false,
      "inputs": [
        {
          "indexed": true,
          "internalType": "address",
          "name": "from",
          "type": "address"
        },
        {
          "indexed": true,
          "internalType": "address",
          "name": "to",
          "type": "address"
        },
        {
          "indexed": true,
          "internalType": "uint256",
          "name": "tokenId",
          "type": "uint256"
        }
      ],
      "name": "Transfer",
      "type": "event"
    },
    {
      "inputs": [
        {
          "internalType": "address",
          "name": "_owner",
          "type": "address"
        }
      ],
      "name": "balanceOf",
      "outputs": [
        {
          "internalType": "uint256",
          "name": "",
          "type": "uint256"
        }
      ],
      "stateMutability": "view",
      "type": "function",
      "constant": true
    },
    {
      "inputs": [
        {
          "internalType": "uint256",
          "name": "",
          "type": "uint256"
        }
      ],
      "name": "cryptoNfts",
      "outputs": [
        {
          "internalType": "string",
          "name": "",
          "type": "string"
        }
      ],
      "stateMutability": "view",
      "type": "function",
      "constant": true
    },
    {
      "inputs": [],
      "name": "name",
      "outputs": [
        {
          "internalType": "string",
          "name": "",
          "type": "string"
        }
      ],
      "stateMutability": "view",
      "type": "function",
      "constant": true
    },
    {
      "inputs": [
        {
          "internalType": "uint256",
          "name": "_tokenId",
          "type": "uint256"
        }
      ],
      "name": "ownerOf",
      "outputs": [
        {
          "internalType": "address",
          "name": "",
          "type": "address"
        }
      ],
      "stateMutability": "view",
      "type": "function",
      "constant": true
    },
    {
      "inputs": [],
      "name": "symbol",
      "outputs": [
        {
          "internalType": "string",
          "name": "",
          "type": "string"
        }
      ],
      "stateMutability": "view",
      "type": "function",
      "constant": true
    },
    {
      "inputs": [
        {
          "internalType": "uint256",
          "name": "index",
          "type": "uint256"
        }
      ],
      "name": "tokenByIndex",
      "outputs": [
        {
          "internalType": "uint256",
          "name": "",
          "type": "uint256"
        }
      ],
      "stateMutability": "view",
      "type": "function",
      "constant": true
    },
    {
      "inputs": [
        {
          "internalType": "address",
          "name": "owner",
          "type": "address"
        },
        {
          "internalType": "uint256",
          "name": "index",
          "type": "uint256"
        }
      ],
      "name": "tokenOfOwnerByIndex",
      "outputs": [
        {
          "internalType": "uint256",
          "name": "",
          "type": "uint256"
        }
      ],
      "stateMutability": "view",
      "type": "function",
      "constant": true
    },
    {
      "inputs": [],
      "name": "totalSupply",
      "outputs": [
        {
          "internalType": "uint256",
          "name": "",
          "type": "uint256"
        }
      ],
      "stateMutability": "view",
      "type": "function",
      "constant": true
    },
    {
      "inputs": [
        {
          "internalType": "address",
          "name": "_from",
          "type": "address"
        },
        {
          "internalType": "address",
          "name": "_to",
          "type": "address"
        },
        {
          "internalType": "uint256",
          "name": "_tokenId",
          "type": "uint256"
        }
      ],
      "name": "transferFrom",
      "outputs": [],
      "stateMutability": "nonpayable",
      "type": "function"
    },
    {
      "inputs": [
        {
          "internalType": "string",
          "name": "_cryptoNft",
          "type": "string"
        }
      ],
      "name": "mint",
      "outputs": [],
      "stateMutability": "nonpayable",
      "type": "function"
    }
  ],
  "bytecode": "0x60806040523480156200001157600080fd5b506040518060400160405280600981526020016810dc9e5c1d1bdb999d60ba1b81525060405180604001604052806005815260200164434e46545360d81b8152508181816000908162000065919062000124565b50600162000074828262000124565b5050505050620001f0565b634e487b7160e01b600052604160045260246000fd5b600181811c90821680620000aa57607f821691505b602082108103620000cb57634e487b7160e01b600052602260045260246000fd5b50919050565b601f8211156200011f57600081815260208120601f850160051c81016020861015620000fa5750805b601f850160051c820191505b818110156200011b5782815560010162000106565b5050505b505050565b81516001600160401b038111156200014057620001406200007f565b620001588162000151845462000095565b84620000d1565b602080601f831160018114620001905760008415620001775750858301515b600019600386901b1c1916600185901b1785556200011b565b600085815260208120601f198616915b82811015620001c157888601518255948401946001909101908401620001a0565b5085821015620001e05787850151600019600388901b60f8161c191681555b5050505050600190811b01905550565b610cfd80620002006000396000f3fe608060405234801561001057600080fd5b506004361061009e5760003560e01c80636352211e116100665780636352211e1461010e57806370a082311461013957806395d89b411461014c57806397245da014610154578063d85d3d271461016757600080fd5b806306fdde03146100a357806318160ddd146100c157806323b872dd146100d35780632f745c59146100e85780634f6ccce7146100fb575b600080fd5b6100ab61017a565b6040516100b89190610918565b60405180910390f35b6005545b6040519081526020016100b8565b6100e66100e1366004610967565b61020c565b005b6100c56100f63660046109a3565b61021c565b6100c56101093660046109cd565b6102b8565b61012161011c3660046109cd565b610336565b6040516001600160a01b0390911681526020016100b8565b6100c56101473660046109e6565b61036b565b6100ab6103af565b6100ab6101623660046109cd565b6103be565b6100e6610175366004610a1e565b61046a565b60606000805461018990610acf565b80601f01602080910402602001604051908101604052809291908181526020018280546101b590610acf565b80156102025780601f106101d757610100808354040283529160200191610202565b820191906000526020600020905b8154815290600101906020018083116101e557829003601f168201915b5050505050905090565b61021783838361056b565b505050565b60006102278361036b565b821061027a5760405162461bcd60e51b815260206004820152601b60248201527f6f776e657220696e646578206973206f7574206f6620626f756e64000000000060448201526064015b60405180910390fd5b6001600160a01b03831660009081526007602052604090208054839081106102a4576102a4610b09565b906000526020600020015490505b92915050565b60006102c360055490565b82106103115760405162461bcd60e51b815260206004820152601c60248201527f676c6f62616c20696e646578206973206f7574206f6620626f756e64000000006044820152606401610271565b6005828154811061032457610324610b09565b90600052602060002001549050919050565b6000818152600260205260408120546001600160a01b0316806102b25760405162461bcd60e51b815260040161027190610b1f565b60006001600160a01b0382166103935760405162461bcd60e51b815260040161027190610b1f565b506001600160a01b031660009081526003602052604090205490565b60606001805461018990610acf565b600981815481106103ce57600080fd5b9060005260206000200160009150905080546103e990610acf565b80601f016020809104026020016040519081016040528092919081815260200182805461041590610acf565b80156104625780601f1061043757610100808354040283529160200191610462565b820191906000526020600020905b81548152906001019060200180831161044557829003601f168201915b505050505081565b600a8160405161047a9190610b61565b9081526040519081900360200190205460ff16156104da5760405162461bcd60e51b815260206004820152601f60248201527f4572726f72202d2043727970746f6e667420616c7265616479206578697374006044820152606401610271565b600980546001810182556000919091527f6e1540171b6c0c960b71a7020d9f60077f6af931a8bbf590da0223dacf75c7af016105168282610bcb565b5060095460009061052990600190610ca1565b90506105353382610714565b6001600a836040516105479190610b61565b908152604051908190036020019020805491151560ff199092169190911790555050565b6001600160a01b0382166105d75760405162461bcd60e51b815260206004820152602d60248201527f6572726f72202d2045524337323131207472616e7366657220746f207468652060448201526c7a65726f20616464726573737360981b6064820152608401610271565b826001600160a01b03166105ea82610336565b6001600160a01b03161461065c5760405162461bcd60e51b815260206004820152603360248201527f547279696e6720746f207472616e73666572206120746f6b656e20746865206160448201527232323932b9b9903237b2b9903737ba1037bbb760691b6064820152608401610271565b6001600160a01b0383166000908152600360205260408120805460019290610685908490610ca1565b90915550506001600160a01b03821660009081526003602052604081208054600192906106b3908490610cb4565b909155505060008181526002602052604080822080546001600160a01b0319166001600160a01b0386811691821790925591518493918716917fddf252ad1be2c89b69c2b068fc378daa952ba7f163c4a11628f55a4df523b3ef91a4505050565b61071e82826107a5565b61076681600580546000838152600660205260408120829055600182018355919091527f036b6384b5eca791c62761152d0c79bb0604c104a5fb6f4eb0703f3154bb3db00155565b6001600160a01b039190911660009081526007602081815260408084208054868652600884529185208290559282526001810183559183529091200155565b6001600160a01b0382166108075760405162461bcd60e51b815260206004820152602360248201527f4552433732313a206d696e74696e6720746f20746865207a65726f206164647260448201526265737360e81b6064820152608401610271565b6000818152600260205260409020546001600160a01b03161561086c5760405162461bcd60e51b815260206004820152601c60248201527f4552433732313a20746f6b656e20616c7265616479206d696e746564000000006044820152606401610271565b600081815260026020908152604080832080546001600160a01b0319166001600160a01b0387169081179091558352600390915281208054600192906108b3908490610cb4565b909155505060405181906001600160a01b038416906000907fddf252ad1be2c89b69c2b068fc378daa952ba7f163c4a11628f55a4df523b3ef908290a45050565b60005b8381101561090f5781810151838201526020016108f7565b50506000910152565b60208152600082518060208401526109378160408501602087016108f4565b601f01601f19169190910160400192915050565b80356001600160a01b038116811461096257600080fd5b919050565b60008060006060848603121561097c57600080fd5b6109858461094b565b92506109936020850161094b565b9150604084013590509250925092565b600080604083850312156109b657600080fd5b6109bf8361094b565b946020939093013593505050565b6000602082840312156109df57600080fd5b5035919050565b6000602082840312156109f857600080fd5b610a018261094b565b9392505050565b634e487b7160e01b600052604160045260246000fd5b600060208284031215610a3057600080fd5b813567ffffffffffffffff80821115610a4857600080fd5b818401915084601f830112610a5c57600080fd5b813581811115610a6e57610a6e610a08565b604051601f8201601f19908116603f01168101908382118183101715610a9657610a96610a08565b81604052828152876020848701011115610aaf57600080fd5b826020860160208301376000928101602001929092525095945050505050565b600181811c90821680610ae357607f821691505b602082108103610b0357634e487b7160e01b600052602260045260246000fd5b50919050565b634e487b7160e01b600052603260045260246000fd5b60208082526022908201527f6f776e657220717565727920666f72206e6f6e206578697374656e7420746f6b60408201526132b760f11b606082015260800190565b60008251610b738184602087016108f4565b9190910192915050565b601f82111561021757600081815260208120601f850160051c81016020861015610ba45750805b601f850160051c820191505b81811015610bc357828155600101610bb0565b505050505050565b815167ffffffffffffffff811115610be557610be5610a08565b610bf981610bf38454610acf565b84610b7d565b602080601f831160018114610c2e5760008415610c165750858301515b600019600386901b1c1916600185901b178555610bc3565b600085815260208120601f198616915b82811015610c5d57888601518255948401946001909101908401610c3e565b5085821015610c7b5787850151600019600388901b60f8161c191681555b5050505050600190811b01905550565b634e487b7160e01b600052601160045260246000fd5b818103818111156102b2576102b2610c8b565b808201808211156102b2576102b2610c8b56fea2646970667358221220d63cea169cc2d0dd66cb636e2cfa22054d4f851e2321dc54c92f8fca2019d47a64736f6c63430008110033",
  "immutableReferences": {},
  "source": "//SPDX-License-Identifier: MIT\npragma solidity ^0.8.0;\n\nimport \"./ERC721Connector.sol\";\n\n//initialize this contract to inherit name and symbol from erc721metadata \n\ncontract CryptoNft is ERC721Connector {\n\n    //array to store nfts\n    string[] public cryptoNfts;\n\n    mapping(string => bool) _cryptoNftsExists;\n\n    function mint(string memory _cryptoNft) public {\n        require(!_cryptoNftsExists[_cryptoNft], 'Error - Cryptonft already exist');\n        cryptoNfts.push(_cryptoNft);\n        uint _id = cryptoNfts.length - 1;\n\n        _mint(msg.sender, _id);\n\n        _cryptoNftsExists[_cryptoNft] = true;\n    }\n\n    constructor() ERC721Connector('Cryptonft','CNFTS')\n    \n    {}\n\n}\n\n",
  "sourcePath": "/Users/gabrieledolfi/Documents/GitHub/Solidity_course/nft-marketplace-starter-kit/src/contracts/Cryptonft.sol",
  "compiler": {
    "name": "solc",
    "version": "0.8.17+commit.8df45f5f.Emscripten.clang"
  },
  "schemaVersion": "3.4.11",
  "updatedAt": "2023-01-21T17:58:22.327Z",
  "networkType": "ethereum",
  "devdoc": {
    "kind": "dev",
    "methods": {
      "balanceOf(address)": {
        "details": "NFTs assigned to the zero address are considered invalid, and this  function throws for queries about the zero address.",
        "params": {
          "_owner": "An address for whom to query the balance"
        },
        "returns": {
          "_0": "The number of NFTs owned by `_owner`, possibly zero"
        }
      },
      "ownerOf(uint256)": {
        "details": "NFTs assigned to zero address are considered invalid, and queries  about them do throw.",
        "params": {
          "_tokenId": "The identifier for an NFT"
        },
        "returns": {
          "_0": "The address of the owner of the NFT"
        }
      }
    },
    "version": 1
  },
  "userdoc": {
    "kind": "user",
    "methods": {
      "balanceOf(address)": {
        "notice": "Count all NFTs assigned to an owner"
      },
      "ownerOf(uint256)": {
        "notice": "Find the owner of an NFT"
      }
    },
    "version": 1
  }
}