{
  "contractName": "ERC721Connector",
  "abi": [
    {
      "inputs": [
        {
          "internalType": "string",
          "name": "name",
          "type": "string"
        },
        {
          "internalType": "string",
          "name": "symbol",
          "type": "string"
        }
      ],
      "stateMutability": "nonpayable",
      "type": "constructor"
    },
    {
      "anonymous": false,
      "inputs": [
        {
          "indexed": true,
          "internalType": "address",
          "name": "from",
          "type": "address"
        },
        {
          "indexed": true,
          "internalType": "address",
          "name": "to",
          "type": "address"
        },
        {
          "indexed": true,
          "internalType": "uint256",
          "name": "tokenId",
          "type": "uint256"
        }
      ],
      "name": "Transfer",
      "type": "event"
    },
    {
      "inputs": [
        {
          "internalType": "address",
          "name": "_owner",
          "type": "address"
        }
      ],
      "name": "balanceOf",
      "outputs": [
        {
          "internalType": "uint256",
          "name": "",
          "type": "uint256"
        }
      ],
      "stateMutability": "view",
      "type": "function"
    },
    {
      "inputs": [],
      "name": "name",
      "outputs": [
        {
          "internalType": "string",
          "name": "",
          "type": "string"
        }
      ],
      "stateMutability": "view",
      "type": "function"
    },
    {
      "inputs": [
        {
          "internalType": "uint256",
          "name": "_tokenId",
          "type": "uint256"
        }
      ],
      "name": "ownerOf",
      "outputs": [
        {
          "internalType": "address",
          "name": "",
          "type": "address"
        }
      ],
      "stateMutability": "view",
      "type": "function"
    },
    {
      "inputs": [],
      "name": "symbol",
      "outputs": [
        {
          "internalType": "string",
          "name": "",
          "type": "string"
        }
      ],
      "stateMutability": "view",
      "type": "function"
    },
    {
      "inputs": [
        {
          "internalType": "uint256",
          "name": "index",
          "type": "uint256"
        }
      ],
      "name": "tokenByIndex",
      "outputs": [
        {
          "internalType": "uint256",
          "name": "",
          "type": "uint256"
        }
      ],
      "stateMutability": "view",
      "type": "function"
    },
    {
      "inputs": [
        {
          "internalType": "address",
          "name": "owner",
          "type": "address"
        },
        {
          "internalType": "uint256",
          "name": "index",
          "type": "uint256"
        }
      ],
      "name": "tokenOfOwnerByIndex",
      "outputs": [
        {
          "internalType": "uint256",
          "name": "",
          "type": "uint256"
        }
      ],
      "stateMutability": "view",
      "type": "function"
    },
    {
      "inputs": [],
      "name": "totalSupply",
      "outputs": [
        {
          "internalType": "uint256",
          "name": "",
          "type": "uint256"
        }
      ],
      "stateMutability": "view",
      "type": "function"
    },
    {
      "inputs": [
        {
          "internalType": "address",
          "name": "_from",
          "type": "address"
        },
        {
          "internalType": "address",
          "name": "_to",
          "type": "address"
        },
        {
          "internalType": "uint256",
          "name": "_tokenId",
          "type": "uint256"
        }
      ],
      "name": "transferFrom",
      "outputs": [],
      "stateMutability": "nonpayable",
      "type": "function"
    }
  ],
  "bytecode": "0x60806040523480156200001157600080fd5b5060405162000a3238038062000a32833981016040819052620000349162000123565b818160006200004483826200021c565b5060016200005382826200021c565b5050505050620002e8565b634e487b7160e01b600052604160045260246000fd5b600082601f8301126200008657600080fd5b81516001600160401b0380821115620000a357620000a36200005e565b604051601f8301601f19908116603f01168101908282118183101715620000ce57620000ce6200005e565b81604052838152602092508683858801011115620000eb57600080fd5b600091505b838210156200010f5785820183015181830184015290820190620000f0565b600093810190920192909252949350505050565b600080604083850312156200013757600080fd5b82516001600160401b03808211156200014f57600080fd5b6200015d8683870162000074565b935060208501519150808211156200017457600080fd5b50620001838582860162000074565b9150509250929050565b600181811c90821680620001a257607f821691505b602082108103620001c357634e487b7160e01b600052602260045260246000fd5b50919050565b601f8211156200021757600081815260208120601f850160051c81016020861015620001f25750805b601f850160051c820191505b818110156200021357828155600101620001fe565b5050505b505050565b81516001600160401b038111156200023857620002386200005e565b62000250816200024984546200018d565b84620001c9565b602080601f8311600181146200028857600084156200026f5750858301515b600019600386901b1c1916600185901b17855562000213565b600085815260208120601f198616915b82811015620002b95788860151825594840194600190910190840162000298565b5085821015620002d85787850151600019600388901b60f8161c191681555b5050505050600190811b01905550565b61073a80620002f86000396000f3fe608060405234801561001057600080fd5b50600436106100885760003560e01c80634f6ccce71161005b5780634f6ccce7146100e55780636352211e146100f857806370a082311461012357806395d89b411461013657600080fd5b806306fdde031461008d57806318160ddd146100ab57806323b872dd146100bd5780632f745c59146100d2575b600080fd5b61009561013e565b6040516100a2919061052b565b60405180910390f35b6005545b6040519081526020016100a2565b6100d06100cb366004610595565b6101d0565b005b6100af6100e03660046105d1565b6101e0565b6100af6100f33660046105fb565b61027c565b61010b6101063660046105fb565b6102fa565b6040516001600160a01b0390911681526020016100a2565b6100af610131366004610614565b61032f565b610095610373565b60606000805461014d90610636565b80601f016020809104026020016040519081016040528092919081815260200182805461017990610636565b80156101c65780601f1061019b576101008083540402835291602001916101c6565b820191906000526020600020905b8154815290600101906020018083116101a957829003601f168201915b5050505050905090565b6101db838383610382565b505050565b60006101eb8361032f565b821061023e5760405162461bcd60e51b815260206004820152601b60248201527f6f776e657220696e646578206973206f7574206f6620626f756e64000000000060448201526064015b60405180910390fd5b6001600160a01b038316600090815260076020526040902080548390811061026857610268610670565b906000526020600020015490505b92915050565b600061028760055490565b82106102d55760405162461bcd60e51b815260206004820152601c60248201527f676c6f62616c20696e646578206973206f7574206f6620626f756e64000000006044820152606401610235565b600582815481106102e8576102e8610670565b90600052602060002001549050919050565b6000818152600260205260408120546001600160a01b0316806102765760405162461bcd60e51b815260040161023590610686565b60006001600160a01b0382166103575760405162461bcd60e51b815260040161023590610686565b506001600160a01b031660009081526003602052604090205490565b60606001805461014d90610636565b6001600160a01b0382166103ee5760405162461bcd60e51b815260206004820152602d60248201527f6572726f72202d2045524337323131207472616e7366657220746f207468652060448201526c7a65726f20616464726573737360981b6064820152608401610235565b826001600160a01b0316610401826102fa565b6001600160a01b0316146104735760405162461bcd60e51b815260206004820152603360248201527f547279696e6720746f207472616e73666572206120746f6b656e20746865206160448201527232323932b9b9903237b2b9903737ba1037bbb760691b6064820152608401610235565b6001600160a01b038316600090815260036020526040812080546001929061049c9084906106de565b90915550506001600160a01b03821660009081526003602052604081208054600192906104ca9084906106f1565b909155505060008181526002602052604080822080546001600160a01b0319166001600160a01b0386811691821790925591518493918716917fddf252ad1be2c89b69c2b068fc378daa952ba7f163c4a11628f55a4df523b3ef91a4505050565b600060208083528351808285015260005b818110156105585785810183015185820160400152820161053c565b506000604082860101526040601f19601f8301168501019250505092915050565b80356001600160a01b038116811461059057600080fd5b919050565b6000806000606084860312156105aa57600080fd5b6105b384610579565b92506105c160208501610579565b9150604084013590509250925092565b600080604083850312156105e457600080fd5b6105ed83610579565b946020939093013593505050565b60006020828403121561060d57600080fd5b5035919050565b60006020828403121561062657600080fd5b61062f82610579565b9392505050565b600181811c9082168061064a57607f821691505b60208210810361066a57634e487b7160e01b600052602260045260246000fd5b50919050565b634e487b7160e01b600052603260045260246000fd5b60208082526022908201527f6f776e657220717565727920666f72206e6f6e206578697374656e7420746f6b60408201526132b760f11b606082015260800190565b634e487b7160e01b600052601160045260246000fd5b81810381811115610276576102766106c8565b80820180821115610276576102766106c856fea2646970667358221220b7baf00b8bc80022af9a9546aa1bad8e161782e518822ec574cc41e31901553b64736f6c63430008110033",
  "immutableReferences": {},
  "source": "//SPDX-License-Identifier: MIT\npragma solidity ^0.8.0;\n\nimport \"./ERC721Metadata.sol\";\nimport \"./ERC721Enumerable.sol\";\n\n//Connect to carry the metadata info over\n\ncontract ERC721Connector is ERC721Metadata, ERC721Enumerable {\n\n\n    constructor(string memory name, string memory symbol) ERC721Metadata(name, symbol) {}\n\n}",
  "sourcePath": "/Users/gabrieledolfi/Documents/GitHub/Solidity_course/nft-marketplace-starter-kit/src/contracts/ERC721Connector.sol",
  "compiler": {
    "name": "solc",
    "version": "0.8.17+commit.8df45f5f.Emscripten.clang"
  },
  "schemaVersion": "3.4.11",
  "updatedAt": "2023-01-21T17:58:14.917Z",
  "devdoc": {
    "kind": "dev",
    "methods": {
      "balanceOf(address)": {
        "details": "NFTs assigned to the zero address are considered invalid, and this  function throws for queries about the zero address.",
        "params": {
          "_owner": "An address for whom to query the balance"
        },
        "returns": {
          "_0": "The number of NFTs owned by `_owner`, possibly zero"
        }
      },
      "ownerOf(uint256)": {
        "details": "NFTs assigned to zero address are considered invalid, and queries  about them do throw.",
        "params": {
          "_tokenId": "The identifier for an NFT"
        },
        "returns": {
          "_0": "The address of the owner of the NFT"
        }
      }
    },
    "version": 1
  },
  "userdoc": {
    "kind": "user",
    "methods": {
      "balanceOf(address)": {
        "notice": "Count all NFTs assigned to an owner"
      },
      "ownerOf(uint256)": {
        "notice": "Find the owner of an NFT"
      }
    },
    "version": 1
  }
}