{
  "contractName": "ERC721",
  "abi": [
    {
      "anonymous": false,
      "inputs": [
        {
          "indexed": true,
          "internalType": "address",
          "name": "owner",
          "type": "address"
        },
        {
          "indexed": true,
          "internalType": "address",
          "name": "approved",
          "type": "address"
        },
        {
          "indexed": true,
          "internalType": "uint256",
          "name": "tokenId",
          "type": "uint256"
        }
      ],
      "name": "Approval",
      "type": "event"
    },
    {
      "anonymous": false,
      "inputs": [
        {
          "indexed": true,
          "internalType": "address",
          "name": "from",
          "type": "address"
        },
        {
          "indexed": true,
          "internalType": "address",
          "name": "to",
          "type": "address"
        },
        {
          "indexed": true,
          "internalType": "uint256",
          "name": "tokenId",
          "type": "uint256"
        }
      ],
      "name": "Transfer",
      "type": "event"
    },
    {
      "inputs": [
        {
          "internalType": "address",
          "name": "_owner",
          "type": "address"
        }
      ],
      "name": "balanceOf",
      "outputs": [
        {
          "internalType": "uint256",
          "name": "",
          "type": "uint256"
        }
      ],
      "stateMutability": "view",
      "type": "function"
    },
    {
      "inputs": [
        {
          "internalType": "uint256",
          "name": "_tokenId",
          "type": "uint256"
        }
      ],
      "name": "ownerOf",
      "outputs": [
        {
          "internalType": "address",
          "name": "",
          "type": "address"
        }
      ],
      "stateMutability": "view",
      "type": "function"
    },
    {
      "inputs": [
        {
          "internalType": "address",
          "name": "_from",
          "type": "address"
        },
        {
          "internalType": "address",
          "name": "_to",
          "type": "address"
        },
        {
          "internalType": "uint256",
          "name": "_tokenId",
          "type": "uint256"
        }
      ],
      "name": "transferFrom",
      "outputs": [],
      "stateMutability": "nonpayable",
      "type": "function"
    },
    {
      "inputs": [
        {
          "internalType": "address",
          "name": "_to",
          "type": "address"
        },
        {
          "internalType": "uint256",
          "name": "tokenId",
          "type": "uint256"
        }
      ],
      "name": "approve",
      "outputs": [],
      "stateMutability": "nonpayable",
      "type": "function"
    }
  ],
  "bytecode": "0x608060405234801561001057600080fd5b5061064d806100206000396000f3fe608060405234801561001057600080fd5b506004361061004c5760003560e01c8063095ea7b31461005157806323b872dd146100665780636352211e1461007957806370a08231146100a9575b600080fd5b61006461005f3660046104f8565b6100ca565b005b610064610074366004610522565b610210565b61008c61008736600461055e565b610233565b6040516001600160a01b0390911681526020015b60405180910390f35b6100bc6100b7366004610577565b61026e565b6040519081526020016100a0565b60006100d582610233565b9050806001600160a01b0316836001600160a01b0316036101475760405162461bcd60e51b815260206004820152602160248201527f4572726f72202d20617070726f76616c20746f2063757272656e74206f776e656044820152603960f91b60648201526084015b60405180910390fd5b336001600160a01b038216146101b45760405162461bcd60e51b815260206004820152602c60248201527f43757272656e742063616c6c6572206973206e6f7420746865206f776e65722060448201526b37b3103a3432903a37b5b2b760a11b606482015260840161013e565b60008281526002602052604080822080546001600160a01b0319166001600160a01b0387811691821790925591518593918516917f8c5be1e5ebec7d5bd14f71427d1e84f3dd0314c0f7b2291e5b200ac8c7c3b92591a4505050565b61021a33826102b2565b61022357600080fd5b61022e83838361032f565b505050565b6000818152602081905260408120546001600160a01b0316806102685760405162461bcd60e51b815260040161013e90610599565b92915050565b60006001600160a01b0382166102965760405162461bcd60e51b815260040161013e90610599565b506001600160a01b031660009081526001602052604090205490565b6000818152602081905260408120546001600160a01b031661030d5760405162461bcd60e51b81526020600482015260146024820152731d1bdad95b88191bd95cc81b9bdd08195e1a5cdd60621b604482015260640161013e565b600061031883610233565b6001600160a01b0385811691161491505092915050565b6001600160a01b03821661039b5760405162461bcd60e51b815260206004820152602d60248201527f6572726f72202d2045524337323131207472616e7366657220746f207468652060448201526c7a65726f20616464726573737360981b606482015260840161013e565b826001600160a01b03166103ae82610233565b6001600160a01b0316146104205760405162461bcd60e51b815260206004820152603360248201527f547279696e6720746f207472616e73666572206120746f6b656e20746865206160448201527232323932b9b9903237b2b9903737ba1037bbb760691b606482015260840161013e565b6001600160a01b0383166000908152600160208190526040822080549192909161044b9084906105f1565b90915550506001600160a01b0382166000908152600160208190526040822080549192909161047b908490610604565b909155505060008181526020819052604080822080546001600160a01b0319166001600160a01b0386811691821790925591518493918716917fddf252ad1be2c89b69c2b068fc378daa952ba7f163c4a11628f55a4df523b3ef91a4505050565b80356001600160a01b03811681146104f357600080fd5b919050565b6000806040838503121561050b57600080fd5b610514836104dc565b946020939093013593505050565b60008060006060848603121561053757600080fd5b610540846104dc565b925061054e602085016104dc565b9150604084013590509250925092565b60006020828403121561057057600080fd5b5035919050565b60006020828403121561058957600080fd5b610592826104dc565b9392505050565b60208082526022908201527f6f776e657220717565727920666f72206e6f6e206578697374656e7420746f6b60408201526132b760f11b606082015260800190565b634e487b7160e01b600052601160045260246000fd5b81810381811115610268576102686105db565b80820180821115610268576102686105db56fea264697066735822122044c2d22256e50135f16ba7e05bac986e8ce9d81ba6acc5ff1e7b9975e528b40c64736f6c63430008110033",
  "immutableReferences": {},
  "source": "//SPDX-License-Identifier: MIT\npragma solidity ^0.8.0;\n\n/*\n  Minting function\n- NFT to point to an address\n- Keep track of token ids\n- Keep track of token owner with token ids\n- Keep track on how many tokens an address has\n- create an events that emits a transfer log, contract address where it is being minted to the id\n\n*/\n\ncontract ERC721 {\n\n    event Transfer(\n        address indexed from,\n        address indexed to,\n        uint256 indexed tokenId\n    );\n\n    event Approval(\n        address indexed owner,\n        address indexed approved,\n        uint256 indexed tokenId\n    );\n\n    //mapping from token id to the owner\n    //everything should be private\n    mapping(uint256 => address) private _tokenOwner; \n\n    //mapping from owner to number of owned token\n    mapping(address => uint256) private _ownedTokensCount; \n\n    //mapping from token Id to approved address\n    mapping(uint256 => address) private _tokenApprovals;\n\n\n    /// @notice Count all NFTs assigned to an owner\n    /// @dev NFTs assigned to the zero address are considered invalid, and this\n    ///  function throws for queries about the zero address.\n    /// @param _owner An address for whom to query the balance\n    /// @return The number of NFTs owned by `_owner`, possibly zero\n    function balanceOf(address _owner) public view returns (uint256) {\n        require (_owner != address(0), 'owner query for non existent token'); \n        return _ownedTokensCount[_owner];\n    }\n\n    /// @notice Find the owner of an NFT\n    /// @dev NFTs assigned to zero address are considered invalid, and queries\n    ///  about them do throw.\n    /// @param _tokenId The identifier for an NFT\n    /// @return The address of the owner of the NFT\n    function ownerOf(uint256 _tokenId) public view returns (address){\n        address owner = _tokenOwner[_tokenId];\n        require (owner != address(0), 'owner query for non existent token');\n        return owner;\n    }\n   \n    function _exists(uint256 tokenId) internal view returns(bool){\n    // setting the address of nft owner to check the mapping of the address from tokenOwner at the token Id\n        address owner = _tokenOwner[tokenId];\n    //return truthiness that address is not zero\n        return owner != address(0);  \n    }\n    \n    function _mint(address to, uint256 tokenId) internal virtual {\n    // require that address isn't zero\n        require(to != address(0), 'ERC721: minting to the zero address'); \n    // requires that the token does not already exist\n        require(!_exists(tokenId), 'ERC721: token already minted');\n    // adding new address with a token id for minting\n        _tokenOwner[tokenId] = to;\n    // keeping track of each address that is minting and adding one to the count \n        _ownedTokensCount[to] += 1;\n\n        emit Transfer(address(0), to, tokenId);\n    }\n\n    /// @notice Transfer ownership of an NFT -- THE CALLER IS RESPONSIBLE\n    /// @dev Throws unless `msg.sender` is the current owner, an authorized\n    ///  operator, or the approved address for this NFT. Throws if `_from` is\n    ///  not the current owner. Throws if `_to` is the zero address. Throws if\n    ///  `_tokenId` is not a valid NFT.\n    /// @param _from The current owner of the NFT\n    /// @param _to The new owner\n    /// @param _tokenId The NFT to transfer\n    /// Iternal for private informations\n    function _transferFrom(address _from, address _to, uint256 _tokenId) internal {\n        //require address receving the token is not zero\n        require(_to != address(0), 'error - ERC7211 transfer to the zero addresss');\n\n        //require address trasfering the token actually owns the token\n        require(ownerOf(_tokenId) == _from, 'Trying to transfer a token the address does not own');\n\n        //update the balance of the address _from token\n        _ownedTokensCount[_from] -=1;\n\n        //update the balance of the address _to\n        _ownedTokensCount[_to] +=1;\n\n        //add tokenId to the address receiving the token\n        _tokenOwner[_tokenId] = _to;\n\n        emit Transfer(_from, _to, _tokenId);\n    }\n\n    function transferFrom(address _from, address _to, uint256 _tokenId) public {\n        require(isApprovedOrOwner(msg.sender, _tokenId));\n        _transferFrom(_from, _to, _tokenId);\n\n    }\n\n    function approve(address _to, uint256 tokenId) public {\n        address owner = ownerOf(tokenId);\n        require(_to != owner, 'Error - approval to current owner');\n        require(msg.sender == owner, 'Current caller is not the owner of the token');\n        _tokenApprovals[tokenId] = _to;\n        emit Approval(owner, _to, tokenId);\n    }\n\n    function isApprovedOrOwner(address spender, uint256 tokenId) internal view returns (bool){\n        require(_exists(tokenId), 'token does not exist');\n        address owner = ownerOf(tokenId);\n        return(spender == owner);\n    }\n\n}",
  "sourcePath": "/Users/gabrieledolfi/Documents/GitHub/Solidity_course/nft-marketplace-starter-kit/src/contracts/ERC721.sol",
  "compiler": {
    "name": "solc",
    "version": "0.8.17+commit.8df45f5f.Emscripten.clang"
  },
  "schemaVersion": "3.4.11",
  "updatedAt": "2023-01-23T18:04:30.909Z",
  "devdoc": {
    "kind": "dev",
    "methods": {
      "balanceOf(address)": {
        "details": "NFTs assigned to the zero address are considered invalid, and this  function throws for queries about the zero address.",
        "params": {
          "_owner": "An address for whom to query the balance"
        },
        "returns": {
          "_0": "The number of NFTs owned by `_owner`, possibly zero"
        }
      },
      "ownerOf(uint256)": {
        "details": "NFTs assigned to zero address are considered invalid, and queries  about them do throw.",
        "params": {
          "_tokenId": "The identifier for an NFT"
        },
        "returns": {
          "_0": "The address of the owner of the NFT"
        }
      }
    },
    "version": 1
  },
  "userdoc": {
    "kind": "user",
    "methods": {
      "balanceOf(address)": {
        "notice": "Count all NFTs assigned to an owner"
      },
      "ownerOf(uint256)": {
        "notice": "Find the owner of an NFT"
      }
    },
    "version": 1
  }
}