{
  "contractName": "ERC721",
  "abi": [
    {
      "anonymous": false,
      "inputs": [
        {
          "indexed": true,
          "internalType": "address",
          "name": "from",
          "type": "address"
        },
        {
          "indexed": true,
          "internalType": "address",
          "name": "to",
          "type": "address"
        },
        {
          "indexed": true,
          "internalType": "uint256",
          "name": "tokenId",
          "type": "uint256"
        }
      ],
      "name": "Transfer",
      "type": "event"
    },
    {
      "inputs": [
        {
          "internalType": "address",
          "name": "_owner",
          "type": "address"
        }
      ],
      "name": "balanceOf",
      "outputs": [
        {
          "internalType": "uint256",
          "name": "",
          "type": "uint256"
        }
      ],
      "stateMutability": "view",
      "type": "function"
    },
    {
      "inputs": [
        {
          "internalType": "uint256",
          "name": "_tokenId",
          "type": "uint256"
        }
      ],
      "name": "ownerOf",
      "outputs": [
        {
          "internalType": "address",
          "name": "",
          "type": "address"
        }
      ],
      "stateMutability": "view",
      "type": "function"
    }
  ],
  "bytecode": "0x608060405234801561001057600080fd5b506101d5806100206000396000f3fe608060405234801561001057600080fd5b50600436106100365760003560e01c80636352211e1461003b57806370a082311461006b575b600080fd5b61004e610049366004610114565b61008c565b6040516001600160a01b0390911681526020015b60405180910390f35b61007e61007936600461012d565b6100d0565b604051908152602001610062565b6000818152602081905260408120546001600160a01b0316806100ca5760405162461bcd60e51b81526004016100c19061015d565b60405180910390fd5b92915050565b60006001600160a01b0382166100f85760405162461bcd60e51b81526004016100c19061015d565b506001600160a01b031660009081526001602052604090205490565b60006020828403121561012657600080fd5b5035919050565b60006020828403121561013f57600080fd5b81356001600160a01b038116811461015657600080fd5b9392505050565b60208082526022908201527f6f776e657220717565727920666f72206e6f6e206578697374656e7420746f6b60408201526132b760f11b60608201526080019056fea26469706673582212201d12c70aabcbb5d2d7ba59f583427dbc38e9fa7cbf15cb73b6c75f5865d2fdd064736f6c63430008110033",
  "immutableReferences": {},
  "source": "//SPDX-License-Identifier: MIT\npragma solidity ^0.8.0;\n\n/*\n  Minting function\n- NFT to point to an address\n- Keep track of token ids\n- Keep track of token owner with token ids\n- Keep track on how many tokens an address has\n- create an events that emits a transfer log, contract address where it is being minted to the id\n\n*/\n\ncontract ERC721 {\n\n    event Transfer(\n        address indexed from,\n        address indexed to,\n        uint256 indexed tokenId\n    );\n\n    //mapping from token id to the owner\n    //everything should be private\n    mapping(uint256 => address) private _tokenOwner; \n\n    //mapping from owner to number of owned token\n    mapping(address => uint256) private _ownedTokensCount; \n\n\n    /// @notice Count all NFTs assigned to an owner\n    /// @dev NFTs assigned to the zero address are considered invalid, and this\n    ///  function throws for queries about the zero address.\n    /// @param _owner An address for whom to query the balance\n    /// @return The number of NFTs owned by `_owner`, possibly zero\n    function balanceOf(address _owner) external view returns (uint256) {\n        require (_owner != address(0), 'owner query for non existent token'); \n        return _ownedTokensCount[_owner];\n    }\n\n    /// @notice Find the owner of an NFT\n    /// @dev NFTs assigned to zero address are considered invalid, and queries\n    ///  about them do throw.\n    /// @param _tokenId The identifier for an NFT\n    /// @return The address of the owner of the NFT\n    function ownerOf(uint256 _tokenId) external view returns (address){\n        address owner = _tokenOwner[_tokenId];\n        require (owner != address(0), 'owner query for non existent token');\n        return owner;\n    }\n   \n    function _exists(uint256 tokenId) internal view returns(bool){\n    // setting the address of nft owner to check the mapping of the address from tokenOwner at the token Id\n        address owner = _tokenOwner[tokenId];\n    //return truthiness that address is not zero\n        return owner != address(0);  \n    }\n    \n    function _mint(address to, uint256 tokenId) internal virtual {\n    // require that address isn't zero\n        require(to != address(0), 'ERC721: minting to the zero address'); \n    // requires that the token does not already exist\n        require(!_exists(tokenId), 'ERC721: token already minted');\n    // adding new address with a token id for minting\n        _tokenOwner[tokenId] = to;\n    // keeping track of each address that is minting and adding one to the count \n        _ownedTokensCount[to] += 1;\n\n        emit Transfer(address(0), to, tokenId);\n    }\n\n}",
  "sourcePath": "/Users/gabrieledolfi/Documents/GitHub/Solidity_course/nft-marketplace-starter-kit/src/contracts/ERC721.sol",
  "compiler": {
    "name": "solc",
    "version": "0.8.17+commit.8df45f5f.Emscripten.clang"
  },
  "schemaVersion": "3.4.11",
  "updatedAt": "2023-01-19T16:52:37.330Z",
  "devdoc": {
    "kind": "dev",
    "methods": {
      "balanceOf(address)": {
        "details": "NFTs assigned to the zero address are considered invalid, and this  function throws for queries about the zero address.",
        "params": {
          "_owner": "An address for whom to query the balance"
        },
        "returns": {
          "_0": "The number of NFTs owned by `_owner`, possibly zero"
        }
      },
      "ownerOf(uint256)": {
        "details": "NFTs assigned to zero address are considered invalid, and queries  about them do throw.",
        "params": {
          "_tokenId": "The identifier for an NFT"
        },
        "returns": {
          "_0": "The address of the owner of the NFT"
        }
      }
    },
    "version": 1
  },
  "userdoc": {
    "kind": "user",
    "methods": {
      "balanceOf(address)": {
        "notice": "Count all NFTs assigned to an owner"
      },
      "ownerOf(uint256)": {
        "notice": "Find the owner of an NFT"
      }
    },
    "version": 1
  }
}