{
  "contractName": "ERC721Connector",
  "abi": [
    {
      "inputs": [
        {
          "internalType": "string",
          "name": "name",
          "type": "string"
        },
        {
          "internalType": "string",
          "name": "symbol",
          "type": "string"
        }
      ],
      "stateMutability": "nonpayable",
      "type": "constructor"
    },
    {
      "anonymous": false,
      "inputs": [
        {
          "indexed": true,
          "internalType": "address",
          "name": "from",
          "type": "address"
        },
        {
          "indexed": true,
          "internalType": "address",
          "name": "to",
          "type": "address"
        },
        {
          "indexed": true,
          "internalType": "uint256",
          "name": "tokenId",
          "type": "uint256"
        }
      ],
      "name": "Transfer",
      "type": "event"
    },
    {
      "inputs": [
        {
          "internalType": "address",
          "name": "_owner",
          "type": "address"
        }
      ],
      "name": "balanceOf",
      "outputs": [
        {
          "internalType": "uint256",
          "name": "",
          "type": "uint256"
        }
      ],
      "stateMutability": "view",
      "type": "function"
    },
    {
      "inputs": [],
      "name": "name",
      "outputs": [
        {
          "internalType": "string",
          "name": "",
          "type": "string"
        }
      ],
      "stateMutability": "view",
      "type": "function"
    },
    {
      "inputs": [
        {
          "internalType": "uint256",
          "name": "_tokenId",
          "type": "uint256"
        }
      ],
      "name": "ownerOf",
      "outputs": [
        {
          "internalType": "address",
          "name": "",
          "type": "address"
        }
      ],
      "stateMutability": "view",
      "type": "function"
    },
    {
      "inputs": [],
      "name": "symbol",
      "outputs": [
        {
          "internalType": "string",
          "name": "",
          "type": "string"
        }
      ],
      "stateMutability": "view",
      "type": "function"
    },
    {
      "inputs": [],
      "name": "totalSupply",
      "outputs": [
        {
          "internalType": "uint256",
          "name": "",
          "type": "uint256"
        }
      ],
      "stateMutability": "view",
      "type": "function"
    }
  ],
  "bytecode": "0x608060405234801561001057600080fd5b5060405161060d38038061060d83398101604081905261002f9161010f565b8181600061003d83826101fb565b50600161004a82826101fb565b50505050506102ba565b634e487b7160e01b600052604160045260246000fd5b600082601f83011261007b57600080fd5b81516001600160401b038082111561009557610095610054565b604051601f8301601f19908116603f011681019082821181831017156100bd576100bd610054565b816040528381526020925086838588010111156100d957600080fd5b600091505b838210156100fb57858201830151818301840152908201906100de565b600093810190920192909252949350505050565b6000806040838503121561012257600080fd5b82516001600160401b038082111561013957600080fd5b6101458683870161006a565b9350602085015191508082111561015b57600080fd5b506101688582860161006a565b9150509250929050565b600181811c9082168061018657607f821691505b6020821081036101a657634e487b7160e01b600052602260045260246000fd5b50919050565b601f8211156101f657600081815260208120601f850160051c810160208610156101d35750805b601f850160051c820191505b818110156101f2578281556001016101df565b5050505b505050565b81516001600160401b0381111561021457610214610054565b610228816102228454610172565b846101ac565b602080601f83116001811461025d57600084156102455750858301515b600019600386901b1c1916600185901b1785556101f2565b600085815260208120601f198616915b8281101561028c5788860151825594840194600190910190840161026d565b50858210156102aa5787850151600019600388901b60f8161c191681555b5050505050600190811b01905550565b610344806102c96000396000f3fe608060405234801561001057600080fd5b50600436106100575760003560e01c806306fdde031461005c57806318160ddd1461007a5780636352211e1461008c57806370a08231146100b757806395d89b41146100ca575b600080fd5b6100646100d2565b60405161007191906101fb565b60405180910390f35b6004545b604051908152602001610071565b61009f61009a366004610249565b610164565b6040516001600160a01b039091168152602001610071565b61007e6100c5366004610262565b6101a8565b6100646101ec565b6060600080546100e190610292565b80601f016020809104026020016040519081016040528092919081815260200182805461010d90610292565b801561015a5780601f1061012f5761010080835404028352916020019161015a565b820191906000526020600020905b81548152906001019060200180831161013d57829003601f168201915b5050505050905090565b6000818152600260205260408120546001600160a01b0316806101a25760405162461bcd60e51b8152600401610199906102cc565b60405180910390fd5b92915050565b60006001600160a01b0382166101d05760405162461bcd60e51b8152600401610199906102cc565b506001600160a01b031660009081526003602052604090205490565b6060600180546100e190610292565b600060208083528351808285015260005b818110156102285785810183015185820160400152820161020c565b506000604082860101526040601f19601f8301168501019250505092915050565b60006020828403121561025b57600080fd5b5035919050565b60006020828403121561027457600080fd5b81356001600160a01b038116811461028b57600080fd5b9392505050565b600181811c908216806102a657607f821691505b6020821081036102c657634e487b7160e01b600052602260045260246000fd5b50919050565b60208082526022908201527f6f776e657220717565727920666f72206e6f6e206578697374656e7420746f6b60408201526132b760f11b60608201526080019056fea2646970667358221220861396cd54b0c4e6bc9c0cbca2585e0f48e2c8130e84b964af1648377824af1e64736f6c63430008110033",
  "immutableReferences": {},
  "source": "//SPDX-License-Identifier: MIT\npragma solidity ^0.8.0;\n\nimport \"./ERC721Metadata.sol\";\nimport \"./ERC721Enumerable.sol\";\n\n//Connect to carry the metadata info over\n\ncontract ERC721Connector is ERC721Metadata, ERC721Enumerable {\n\n\n    constructor(string memory name, string memory symbol) ERC721Metadata(name, symbol) {}\n\n}",
  "sourcePath": "/Users/gabrieledolfi/Documents/GitHub/Solidity_course/nft-marketplace-starter-kit/src/contracts/ERC721Connector.sol",
  "compiler": {
    "name": "solc",
    "version": "0.8.17+commit.8df45f5f.Emscripten.clang"
  },
  "schemaVersion": "3.4.11",
  "updatedAt": "2023-01-19T16:52:37.332Z",
  "devdoc": {
    "kind": "dev",
    "methods": {
      "balanceOf(address)": {
        "details": "NFTs assigned to the zero address are considered invalid, and this  function throws for queries about the zero address.",
        "params": {
          "_owner": "An address for whom to query the balance"
        },
        "returns": {
          "_0": "The number of NFTs owned by `_owner`, possibly zero"
        }
      },
      "ownerOf(uint256)": {
        "details": "NFTs assigned to zero address are considered invalid, and queries  about them do throw.",
        "params": {
          "_tokenId": "The identifier for an NFT"
        },
        "returns": {
          "_0": "The address of the owner of the NFT"
        }
      },
      "totalSupply()": {
        "returns": {
          "_0": "A count of valid NFTs tracked by this contract, where each one of  them has an assigned and queryable owner not equal to the zero address"
        }
      }
    },
    "version": 1
  },
  "userdoc": {
    "kind": "user",
    "methods": {
      "balanceOf(address)": {
        "notice": "Count all NFTs assigned to an owner"
      },
      "ownerOf(uint256)": {
        "notice": "Find the owner of an NFT"
      },
      "totalSupply()": {
        "notice": "Count NFTs tracked by this contract"
      }
    },
    "version": 1
  }
}