{
  "contractName": "ERC721",
  "abi": [
    {
      "anonymous": false,
      "inputs": [
        {
          "indexed": true,
          "internalType": "address",
          "name": "from",
          "type": "address"
        },
        {
          "indexed": true,
          "internalType": "address",
          "name": "to",
          "type": "address"
        },
        {
          "indexed": true,
          "internalType": "uint256",
          "name": "tokenId",
          "type": "uint256"
        }
      ],
      "name": "Transfer",
      "type": "event"
    },
    {
      "inputs": [
        {
          "internalType": "address",
          "name": "_owner",
          "type": "address"
        }
      ],
      "name": "balanceOf",
      "outputs": [
        {
          "internalType": "uint256",
          "name": "",
          "type": "uint256"
        }
      ],
      "stateMutability": "view",
      "type": "function"
    },
    {
      "inputs": [
        {
          "internalType": "uint256",
          "name": "_tokenId",
          "type": "uint256"
        }
      ],
      "name": "ownerOf",
      "outputs": [
        {
          "internalType": "address",
          "name": "",
          "type": "address"
        }
      ],
      "stateMutability": "view",
      "type": "function"
    },
    {
      "inputs": [
        {
          "internalType": "address",
          "name": "_from",
          "type": "address"
        },
        {
          "internalType": "address",
          "name": "_to",
          "type": "address"
        },
        {
          "internalType": "uint256",
          "name": "_tokenId",
          "type": "uint256"
        }
      ],
      "name": "transferFrom",
      "outputs": [],
      "stateMutability": "nonpayable",
      "type": "function"
    }
  ],
  "bytecode": "0x608060405234801561001057600080fd5b50610438806100206000396000f3fe608060405234801561001057600080fd5b50600436106100415760003560e01c806323b872dd146100465780636352211e1461005b57806370a082311461008b575b600080fd5b61005961005436600461030d565b6100ac565b005b61006e610069366004610349565b6100bc565b6040516001600160a01b0390911681526020015b60405180910390f35b61009e610099366004610362565b610100565b604051908152602001610082565b6100b7838383610144565b505050565b6000818152602081905260408120546001600160a01b0316806100fa5760405162461bcd60e51b81526004016100f190610384565b60405180910390fd5b92915050565b60006001600160a01b0382166101285760405162461bcd60e51b81526004016100f190610384565b506001600160a01b031660009081526001602052604090205490565b6001600160a01b0382166101b05760405162461bcd60e51b815260206004820152602d60248201527f6572726f72202d2045524337323131207472616e7366657220746f207468652060448201526c7a65726f20616464726573737360981b60648201526084016100f1565b826001600160a01b03166101c3826100bc565b6001600160a01b0316146102355760405162461bcd60e51b815260206004820152603360248201527f547279696e6720746f207472616e73666572206120746f6b656e20746865206160448201527232323932b9b9903237b2b9903737ba1037bbb760691b60648201526084016100f1565b6001600160a01b038316600090815260016020819052604082208054919290916102609084906103dc565b90915550506001600160a01b038216600090815260016020819052604082208054919290916102909084906103ef565b909155505060008181526020819052604080822080546001600160a01b0319166001600160a01b0386811691821790925591518493918716917fddf252ad1be2c89b69c2b068fc378daa952ba7f163c4a11628f55a4df523b3ef91a4505050565b80356001600160a01b038116811461030857600080fd5b919050565b60008060006060848603121561032257600080fd5b61032b846102f1565b9250610339602085016102f1565b9150604084013590509250925092565b60006020828403121561035b57600080fd5b5035919050565b60006020828403121561037457600080fd5b61037d826102f1565b9392505050565b60208082526022908201527f6f776e657220717565727920666f72206e6f6e206578697374656e7420746f6b60408201526132b760f11b606082015260800190565b634e487b7160e01b600052601160045260246000fd5b818103818111156100fa576100fa6103c6565b808201808211156100fa576100fa6103c656fea264697066735822122024de1e4cd05cb2ae6621062976b61a581ca133f06354369c3b9e3a5b37a3099164736f6c63430008110033",
  "immutableReferences": {},
  "source": "//SPDX-License-Identifier: MIT\npragma solidity ^0.8.0;\n\n/*\n  Minting function\n- NFT to point to an address\n- Keep track of token ids\n- Keep track of token owner with token ids\n- Keep track on how many tokens an address has\n- create an events that emits a transfer log, contract address where it is being minted to the id\n\n*/\n\ncontract ERC721 {\n\n    event Transfer(\n        address indexed from,\n        address indexed to,\n        uint256 indexed tokenId\n    );\n\n    //mapping from token id to the owner\n    //everything should be private\n    mapping(uint256 => address) private _tokenOwner; \n\n    //mapping from owner to number of owned token\n    mapping(address => uint256) private _ownedTokensCount; \n\n    //mapping from token Id to approved address\n    mapping(uint256 => address) private _tokenApprovals;\n\n\n    /// @notice Count all NFTs assigned to an owner\n    /// @dev NFTs assigned to the zero address are considered invalid, and this\n    ///  function throws for queries about the zero address.\n    /// @param _owner An address for whom to query the balance\n    /// @return The number of NFTs owned by `_owner`, possibly zero\n    function balanceOf(address _owner) public view returns (uint256) {\n        require (_owner != address(0), 'owner query for non existent token'); \n        return _ownedTokensCount[_owner];\n    }\n\n    /// @notice Find the owner of an NFT\n    /// @dev NFTs assigned to zero address are considered invalid, and queries\n    ///  about them do throw.\n    /// @param _tokenId The identifier for an NFT\n    /// @return The address of the owner of the NFT\n    function ownerOf(uint256 _tokenId) public view returns (address){\n        address owner = _tokenOwner[_tokenId];\n        require (owner != address(0), 'owner query for non existent token');\n        return owner;\n    }\n   \n    function _exists(uint256 tokenId) internal view returns(bool){\n    // setting the address of nft owner to check the mapping of the address from tokenOwner at the token Id\n        address owner = _tokenOwner[tokenId];\n    //return truthiness that address is not zero\n        return owner != address(0);  \n    }\n    \n    function _mint(address to, uint256 tokenId) internal virtual {\n    // require that address isn't zero\n        require(to != address(0), 'ERC721: minting to the zero address'); \n    // requires that the token does not already exist\n        require(!_exists(tokenId), 'ERC721: token already minted');\n    // adding new address with a token id for minting\n        _tokenOwner[tokenId] = to;\n    // keeping track of each address that is minting and adding one to the count \n        _ownedTokensCount[to] += 1;\n\n        emit Transfer(address(0), to, tokenId);\n    }\n\n    /// @notice Transfer ownership of an NFT -- THE CALLER IS RESPONSIBLE\n    /// @dev Throws unless `msg.sender` is the current owner, an authorized\n    ///  operator, or the approved address for this NFT. Throws if `_from` is\n    ///  not the current owner. Throws if `_to` is the zero address. Throws if\n    ///  `_tokenId` is not a valid NFT.\n    /// @param _from The current owner of the NFT\n    /// @param _to The new owner\n    /// @param _tokenId The NFT to transfer\n    /// Iternal for private informations\n    function _transferFrom(address _from, address _to, uint256 _tokenId) internal {\n        //require address receving the token is not zero\n        require(_to != address(0), 'error - ERC7211 transfer to the zero addresss');\n\n        //require address trasfering the token actually owns the token\n        require(ownerOf(_tokenId) == _from, 'Trying to transfer a token the address does not own');\n\n        //update the balance of the address _from token\n        _ownedTokensCount[_from] -=1;\n\n        //update the balance of the address _to\n        _ownedTokensCount[_to] +=1;\n\n        //add tokenId to the address receiving the token\n        _tokenOwner[_tokenId] = _to;\n\n        emit Transfer(_from, _to, _tokenId);\n    }\n\n    function transferFrom(address _from, address _to, uint256 _tokenId) public {\n        _transferFrom(_from, _to, _tokenId);\n    }\n\n}",
  "sourcePath": "/Users/gabrieledolfi/Documents/GitHub/Solidity_course/nft-marketplace-starter-kit/src/contracts/ERC721.sol",
  "compiler": {
    "name": "solc",
    "version": "0.8.17+commit.8df45f5f.Emscripten.clang"
  },
  "schemaVersion": "3.4.11",
  "updatedAt": "2023-01-21T17:58:14.915Z",
  "devdoc": {
    "kind": "dev",
    "methods": {
      "balanceOf(address)": {
        "details": "NFTs assigned to the zero address are considered invalid, and this  function throws for queries about the zero address.",
        "params": {
          "_owner": "An address for whom to query the balance"
        },
        "returns": {
          "_0": "The number of NFTs owned by `_owner`, possibly zero"
        }
      },
      "ownerOf(uint256)": {
        "details": "NFTs assigned to zero address are considered invalid, and queries  about them do throw.",
        "params": {
          "_tokenId": "The identifier for an NFT"
        },
        "returns": {
          "_0": "The address of the owner of the NFT"
        }
      }
    },
    "version": 1
  },
  "userdoc": {
    "kind": "user",
    "methods": {
      "balanceOf(address)": {
        "notice": "Count all NFTs assigned to an owner"
      },
      "ownerOf(uint256)": {
        "notice": "Find the owner of an NFT"
      }
    },
    "version": 1
  }
}